:020000040800F2
:1000000000500020E5360008B91D0008BB1D00089F
:10001000BD1D0008BF1D0008C11D00080000000034
:10002000000000000000000000000000C31D0008E8
:10003000C51D000800000000C71D0008C91D0008FC
:100040002D3700082D3700082D3700082D37000800
:100050002D3700082D3700082D3700082D370008F0
:100060002D3700082D3700082D3700082D370008E0
:100070002D3700082D3700082D3700082D370008D0
:100080002D3700082D3700082D3700082D370008C0
:100090002D3700082D3700082D3700082D370008B0
:1000A0002D3700082D3700082D3700082D370008A0
:1000B0002D3700082D3700082D3700082D37000890
:1000C0002D3700082D3700082D3700082D37000880
:1000D0002D3700082D3700082D3700082D37000870
:1000E000D11D00082D3700082D3700080000000042
:1000F0000000000000000000000000000000000000
:0C01000000000000000000005FF808F1A3
:100110000348044B834202D0034B03B11847704796
:100120003401002034010020000000000548064B87
:100130001B1AD90F01EBA301491002D0034B03B1E5
:1001400018477047340100203401002000000000EF
:1001500010B5064C237843B9FFF7DAFF044B13B10F
:100160000448AFF300800123237010BD3401002048
:10017000000000004437000808B5044B1BB10449D7
:100180000448AFF30080BDE80840CFE7000000005E
:10019000380100204437000838B5044600F0BAF9A9
:1001A00021460546204601F0DDF920B90021204610
:1001B00001F0B0F908B9284638BD00F067FA00210F
:1001C00021230360084601F0BBF80546284638BDE8
:1001D00000F000B870B521F00045B5F1FF4F0A46B8
:1001E00003462CD820F00046B6F1FF4F844626D8AF
:1001F000B1F17E5F35D08C1704F0020444EAD0746C
:1002000016B33DB3B5F1FF4F33D0B6F1FF4F21D058
:10021000761BB6F1F45F4FEAE65028DA002934DAAB
:100220003C3032DA0020012C40D0022C36D02CB1E8
:10023000254900F0C9FE254900F0C4FE70BD1946ED
:10024000104600F0C1FE70BD022C08D0032CF5D181
:100250001F4870BDBCF1000F07DB1E4870BD1B4876
:1002600070BDBDE8704000F03DB81B4870BD194836
:10027000D9E7B6F1FF4F04F1FF341AD0022C1ED893
:10028000164B03EB8403D86870BD1146184601F085
:1002900057F800F03BF900F025F8C4E70A4900F0F0
:1002A00093FE0146094800F08DFE70BD00F100404C
:1002B00070BD022C05D8094B53F8240070BD0020F6
:1002C00070BD074870BD00BF2EBDBB33DB0F49407A
:1002D000DB0F49C0DB0FC93FDB0FC9BF5C3700082C
:1002E000DB0F493F2DE9F04120F00045B5F1A14F6A
:1002F0000446074608D3B5F1FF4F73D8002840F3F2
:1003000081806F48BDE8F0816E4B9D427DD8B5F18C
:10031000445F6CD34FF0FF382146204600F05CFF6D
:100320000146064600F058FF6749054600F054FFB5
:10033000664900F049FE294600F04EFF644900F08E
:1003400043FE294600F048FF624900F03DFE294681
:1003500000F042FF604900F037FE294600F03CFF04
:100360005E4900F031FE314600F036FF5C4906463A
:10037000284600F031FF5B4900F024FE294600F0DA
:100380002BFF594900F01EFE294600F025FF574972
:1003900000F018FE294600F01FFF554900F012FE3C
:1003A000294600F019FF0146304600F00DFE2146B7
:1003B00000F012FFB8F1FF3F014646D04D4D05EB6E
:1003C0008803196900F0FEFD214600F0FBFD01469F
:1003D00055F8280000F0F6FD002F93DA00F10040F8
:1003E000BDE8F081014600F0EFFDBDE8F081424933
:1003F00000F0EAFD4FF07E5101F0AAF8002889D004
:1004000020467FE73D48BDE8F08100F07FF83C4B97
:100410009D4204461ED8A3F5D0039D423CD8014618
:1004200000F0D2FD4FF07E5100F0CCFD4FF0804146
:10043000034620461C4600F0C7FD0146204600F05A
:100440007FFF4FF00008044666E7204600F0BAFD43
:10045000BDE8F0812B4B9D4216D84FF07F5100F044
:10046000B1FD4FF07F51034620461C4600F0B4FE1C
:100470004FF07E5100F0A8FD0146204600F060FFDD
:100480004FF00208044647E721461F4800F058FF96
:100490004FF0030804463FE74FF07E5100F092FD15
:1004A0004FF07E51034620461C4600F08DFD01466C
:1004B000204600F045FF4FF0010804462CE700BF3E
:1004C000DB0FC93FFFFFDF3ED769853C59DA4B3D63
:1004D000356B883D6E2EBA3D2549123EABAAAA3E29
:1004E00021A215BD6BF16E3D95879D3D388EE33D94
:1004F000CDCC4C3E74370008CAF24971DB0FC9BF3E
:10050000FFFF973FFFFF1B40000080BF20F000402F
:10051000704700BF20F00042B2F1FF4FF8B504462B
:100520004ED2002A43D00028034650DB10F0FF4291
:100530003ED0C115C3F3160242F40002CB07A1F16D
:100540007F0558BF520000246D1052004FF0190E65
:1005500021464FF0807C01EB0C039342DDBF03EB9F
:100560000C016444D31A1346BEF1010E4FEA430254
:100570004FEA5C0CEFD1ABB11A4E30687168376846
:1005800000F020FD0146384600F0CEFF50B1306843
:100590007168366800F018FD0146304600F0BAFF79
:1005A000E0B10234601000F17C5000EBC550F8BDA2
:1005B0005B001802114602F10102F9D54942B9E780
:1005C000014600F009FE214600F0FEFCF8BD0146A0
:1005D00000F0F8FC014600F0B3FEF8BD013424F051
:1005E0000104DFE794370008830730B547D0541E75
:1005F000002A3ED0CAB2034601E0013C39D303F8D9
:10060000012B9D07F9D1032C2CD9CDB205EB052583
:100610000F2C05EB054535D9A4F1100222F00F0C83
:1006200003F1100EE6444FEA121C1A46C2E90055C7
:10063000C2E9025510327245F8D10CF1010214F0F2
:100640000C0F03EB021204F00F0C13D0ACF10403F7
:1006500023F003030433134442F8045B9342FBD1B9
:100660000CF003042CB1C9B21C4403F8011BA342D3
:10067000FBD130BD64461346002CF4D1F9E70346A4
:100680001446C0E71A46A446E0E700BF014B1868CD
:10069000704700BF0000002070B50F4B0F4DAB42FC
:1006A000A3EB050607D0B610002455F8043B01342F
:1006B0009847A642F9D803F045F8094D094B5E1B4F
:1006C000AB424FEAA60606D0002455F8043B01349D
:1006D0009847A642F9D870BDE4370008E43700080F
:1006E000E4370008EC370008002301461A46184694
:1006F00000F014B838B5074D074C2C1BA41005D0DA
:10070000013C55F8043D9847002CF9D1BDE838402C
:1007100003F01EB8F0370008EC37000870B4164D2F
:100720002C681CB365681F2D23DC38B9AB1C013560
:10073000656044F82310002070BC704704EB850C02
:100740000228CCF88820D4F888614FF0010202FA20
:1007500005F246EA0206C4F88861CCF80831E5D112
:10076000D4F88C311343C4F88C31DFE7034C2C6090
:10077000D8E74FF0FF30DFE78C0200209002002026
:1007800081F0004102E000BF83F0004330B54FEA42
:1007900041044FEA430594EA050F08BF90EA020FAF
:1007A0001FBF54EA000C55EA020C7FEA645C7FEA42
:1007B000655C00F0E2804FEA5454D4EB5555B8BF65
:1007C0006D420CDD2C4480EA020281EA030382EAD6
:1007D000000083EA010180EA020281EA0303362D68
:1007E00088BF30BD11F0004F4FEA01314FF4801C3B
:1007F0004CEA113102D0404261EB410113F0004F4D
:100800004FEA03334CEA133302D0524263EB430303
:1008100094EA050F00F0A780A4F10104D5F1200EA1
:100820000DDB02FA0EFC22FA05F2801841F10001FC
:1008300003FA0EF2801843FA05F359410EE0A5F1D0
:1008400020050EF1200E012A03FA0EFC28BF4CF001
:10085000020C43FA05F3C01851EBE37101F00045B7
:1008600007D54FF0000EDCF1000C7EEB00006EEBC4
:100870000101B1F5801F1BD3B1F5001F0CD349084E
:100880005FEA30004FEA3C0C04F101044FEA4452A5
:1008900012F5800F80F09A80BCF1004F08BF5FEA2C
:1008A000500C50F1000041EB045141EA050130BD0C
:1008B0005FEA4C0C404141EB0101013C28BFB1F51E
:1008C000801FE9D291F0000F04BF01460020B1FA69
:1008D00081F308BF2033A3F10B03B3F120020CDA3C
:1008E0000C3208DD02F1140CC2F10C0201FA0CF01A
:1008F00021FA02F10CE002F11402D8BFC2F1200C7F
:1009000001FA02F120FA0CFCDCBF41EA0C01904034
:10091000E41AA2BF01EB0451294330BD6FEA04047D
:100920001F3C1CDA0C340EDC04F11404C4F1200268
:1009300020FA04F001FA02F340EA030021FA04F37A
:1009400045EA030130BDC4F10C04C4F1200220FAD1
:1009500002F001FA04F340EA0300294630BD21FA0F
:1009600004F0294630BD94F0000F83F4801306BFD5
:1009700081F480110134013D4EE77FEA645C18BFC9
:100980007FEA655C29D094EA050F08BF90EA020F60
:1009900005D054EA000C04BF1946104630BD91EA58
:1009A000030F1EBF0021002030BD5FEA545C05D15B
:1009B0004000494128BF41F0004130BD14F580049A
:1009C0003CBF01F5801130BD01F0004545F0FE410E
:1009D00041F470014FF0000030BD7FEA645C1ABF43
:1009E000194610467FEA655C1CBF0B46024650EA7A
:1009F000013406BF52EA033591EA030F41F40021A6
:100A000030BD00BF90F0000F04BF0021704730B52B
:100A10004FF4806404F132044FF000054FF0000100
:100A200050E700BF90F0000F04BF0021704730B5C1
:100A30004FF4806404F1320410F0004548BF404296
:100A40004FF000013EE700BF42004FEAE2014FEAEB
:100A500031014FEA02701FBF12F07F4393F07F4FC6
:100A600081F06051704732F07F4208BF704793F0C9
:100A70007F4F04BF41F40021704730B54FF46074DC
:100A800001F0004521F000411CE700BF50EA0102DF
:100A900008BF704730B54FF000050AE050EA010288
:100AA00008BF704730B511F0004502D5404261EBF8
:100AB00041014FF4806404F132045FEA915C3FF439
:100AC000D8AE4FF003025FEADC0C18BF03325FEAD6
:100AD000DC0C18BF033202EBDC02C2F1200300FA87
:100AE00003FC20FA02F001FA03FE40EA0E0021FAAC
:100AF00002F11444BDE600BF70B54FF0FF0C4CF49A
:100B0000E06C1CEA11541DBF1CEA135594EA0C0F4B
:100B100095EA0C0F00F0DEF82C4481EA030621EA86
:100B20004C5123EA4C5350EA013518BF52EA0335C1
:100B300041F4801143F4801338D0A0FB02CE4FF073
:100B40000005E1FB02E506F00042E0FB03E54FF0A3
:100B50000006E1FB03569CF0000F18BF4EF0010E9B
:100B6000A4F1FF04B6F5007F64F5407404D25FEA97
:100B70004E0E6D4146EB060642EAC62141EA55514A
:100B80004FEAC52040EA5E504FEACE2EB4F1FD0C8C
:100B900088BFBCF5E06F1ED8BEF1004F08BF5FEA0A
:100BA000500E50F1000041EB045170BD06F00046BC
:100BB00046EA010140EA020081EA0301B4EB5C0469
:100BC000C2BFD4EB0C0541EA045170BD41F4801161
:100BD0004FF0000E013C00F3AB8014F1360FDEBF86
:100BE000002001F0004170BDC4F10004203C35DA62
:100BF0000C341BDC04F11404C4F1200500FA05F3E5
:100C000020FA04F001FA05F240EA020001F0004285
:100C100021F0004110EBD37021FA04F642EB0601FB
:100C20005EEA430E08BF20EAD37070BDC4F10C0425
:100C3000C4F1200500FA04F320FA05F001FA04F2E9
:100C400040EA020001F0004110EBD37041F10001D5
:100C50005EEA430E08BF20EAD37070BDC4F12005E0
:100C600000FA05F24EEA020E20FA04F301FA05F248
:100C700043EA020321FA04F001F0004121FA04F2F0
:100C800020EA020000EBD3705EEA430E08BF20EAC0
:100C9000D37070BD94F0000F0FD101F000464000FA
:100CA00041EB010111F4801F08BF013CF7D041EA7C
:100CB000060195F0000F18BF704703F00046520080
:100CC00043EB030313F4801F08BF013DF7D043EA51
:100CD0000603704794EA0C0F0CEA135518BF95EA07
:100CE0000C0F0CD050EA410618BF52EA4306D1D18E
:100CF00081EA030101F000414FF0000070BD50EAAD
:100D0000410606BF1046194652EA430619D094EA36
:100D10000C0F02D150EA013613D195EA0C0F05D120
:100D200052EA03361CBF104619460AD181EA030174
:100D300001F0004141F0FE4141F470014FF000002C
:100D400070BD41F0FE4141F4780170BD70B54FF0C7
:100D5000FF0C4CF4E06C1CEA11541DBF1CEA135547
:100D600094EA0C0F95EA0C0F00F0A7F8A4EB050429
:100D700081EA030E52EA03354FEA013100F0888020
:100D80004FEA03334FF0805545EA131343EA1263E9
:100D90004FEA022245EA111545EA10654FEA00269E
:100DA0000EF000419D4208BF964244F1FD0404F557
:100DB000407402D25B084FEA3202B61A65EB0305B3
:100DC0005B084FEA32024FF480104FF4002CB6EB70
:100DD000020E75EB030E22BFB61A754640EA0C00F0
:100DE0005B084FEA3202B6EB020E75EB030E22BF30
:100DF000B61A754640EA5C005B084FEA3202B6EB71
:100E0000020E75EB030E22BFB61A754640EA9C002F
:100E10005B084FEA3202B6EB020E75EB030E22BFFF
:100E2000B61A754640EADC0055EA060E18D04FEABD
:100E3000051545EA16754FEA06164FEAC30343EA5D
:100E400052734FEAC2025FEA1C1CC0D111F4801F2A
:100E50000BD141EA00014FF000004FF0004CB6E723
:100E600011F4801F04BF01430020B4F1FD0C88BFC2
:100E7000BCF5E06F3FF6AFAEB5EB030C04BFB6EBCD
:100E8000020C5FEA500C50F1000041EB045170BDC0
:100E90000EF0004E4EEA113114EB5C04C2BFD4EBED
:100EA0000C0541EA045170BD41F480114FF0000E71
:100EB000013C90E645EA060E8DE60CEA135594EAED
:100EC0000C0F08BF95EA0C0F3FF43BAF94EA0C0FF0
:100ED0000AD150EA01347FF434AF95EA0C0F7FF465
:100EE00025AF104619462CE795EA0C0F06D152EAB9
:100EF00003353FF4FDAE1046194622E750EA41069D
:100F000018BF52EA43067FF4C5AE50EA41047FF4AD
:100F10000DAF52EA43057FF4EBAE12E74FEA410210
:100F2000B2F1E04324BFB3F5001CDCF1FE5C0DD947
:100F300001F0004C4FEAC0024CEA5070B2F1004F91
:100F400040EB830008BF20F00100704711F0804F94
:100F500021D113F13872BCBF01F00040704741F459
:100F600080114FEA5252C2F11802C2F1200C10FA5D
:100F70000CF320FA02F018BF40F001004FEAC12341
:100F80004FEAD32303FA0CFC40EA0C0023FA02F3E5
:100F90004FEA4303CCE77FEA625307D150EA0133BB
:100FA0001EBF4FF0FE4040F44000704701F000408B
:100FB00040F0FE4040F40000704700BF80F0004069
:100FC00002E000BF81F0004142001FBF5FEA410321
:100FD00092EA030F7FEA226C7FEA236C6AD04FEA21
:100FE0001262D2EB1363C1BFD21841404840414066
:100FF000B8BF5B42192B88BF704710F0004F40F418
:10100000000020F07F4018BF404211F0004F41F433
:10101000000121F07F4118BF494292EA030F3FD0FF
:10102000A2F1010241FA03FC10EB0C00C3F1200312
:1010300001FA03F100F0004302D5494260EB4000A1
:10104000B0F5000F13D3B0F1807F06D340084FEA0C
:10105000310102F10102FE2A51D2B1F1004F40EB01
:10106000C25008BF20F0010040EA03007047490069
:1010700040EB0000013A28BFB0F5000FEDD2B0FA06
:1010800080FCACF1080CB2EB0C0200FA0CF0AABF29
:1010900000EBC25052421843BCBFD04018437047C7
:1010A00092F0000F81F4000106BF80F400000132CD
:1010B000013BB5E74FEA41037FEA226C18BF7FEAA4
:1010C000236C21D092EA030F04D092F0000F08BFE6
:1010D0000846704790EA010F1CBF0020704712F0CD
:1010E0007F4F04D1400028BF40F00040704712F10C
:1010F00000723CBF00F50000704700F0004343F071
:10110000FE4040F4000070477FEA226216BF0846A6
:101110007FEA23630146420206BF5FEA412390EA69
:10112000010F40F4800070474FF0000304E000BF5F
:1011300010F0004348BF40425FEA000C08BF704710
:1011400043F0964301464FF000001CE050EA0102D4
:1011500008BF70474FF000030AE000BF50EA0102E9
:1011600008BF704711F0004302D5404261EB4101D6
:101170005FEA010C02BF84460146002043F0B643FB
:1011800008BFA3F18053A3F50003BCFA8CF2083A20
:10119000A3EBC25310DB01FA02FC634400FA02FC29
:1011A000C2F12002BCF1004F20FA02F243EB020030
:1011B00008BF20F00100704702F1200201FA02FC92
:1011C000C2F1200250EA4C0021FA02F243EB020085
:1011D00008BF20EADC7070474FF0FF0C1CEAD052C9
:1011E0001EBF1CEAD15392EA0C0F93EA0C0F6FD08A
:1011F0001A4480EA010C400218BF5FEA41211ED068
:101200004FF0006343EA501043EA5111A0FB013153
:101210000CF00040B1F5000F3EBF490041EAD37128
:101220005B0040EA010062F17F02FD2A1DD8B3F1A4
:10123000004F40EBC25008BF20F00100704790F013
:10124000000F0CF0004C08BF49024CEA502040EA65
:1012500051207F3AC2BFD2F1FF0340EAC25070472B
:1012600040F400004FF00003013A5DDC12F1190F69
:10127000DCBF00F000407047C2F10002410021FADB
:1012800002F1C2F1200200FA02FC5FEA310040F1F3
:10129000000053EA4C0308BF20EADC70704792F06C
:1012A000000F00F0004C02BF400010F4000F013AA4
:1012B000F9D040EA0C0093F0000F01F0004C02BF9F
:1012C000490011F4000F013BF9D041EA0C018FE70E
:1012D0000CEAD15392EA0C0F18BF93EA0C0F0AD014
:1012E00030F0004C18BF31F0004CD8D180EA01003A
:1012F00000F00040704790F0000F17BF90F0004FD3
:10130000084691F0000F91F0004F14D092EA0C0FB4
:1013100001D142020FD193EA0C0F03D14B0218BF47
:10132000084608D180EA010000F0004040F0FE408D
:1013300040F40000704740F0FE4040F44000704729
:101340004FF0FF0C1CEAD0521EBF1CEAD15392EAA8
:101350000C0F93EA0C0F69D0A2EB030280EA010C98
:1013600049024FEA402037D04FF0805343EA111131
:1013700043EA10130CF000408B4238BF5B0042F18F
:101380007D024FF4000C8B4224BF5B1A40EA0C0034
:10139000B3EB510F24BFA3EB510340EA5C00B3EB66
:1013A000910F24BFA3EB910340EA9C00B3EBD10F54
:1013B00024BFA3EBD10340EADC001B0118BF5FEAA6
:1013C0001C1CE0D1FD2A3FF650AF8B4240EBC250CF
:1013D00008BF20F0010070470CF0004C4CEA502090
:1013E0007F32C2BFD2F1FF0340EAC250704740F4DF
:1013F00000004FF00003013A37E792F0000F00F0D1
:10140000004C02BF400010F4000F013AF9D040EA4E
:101410000C0093F0000F01F0004C02BF490011F4E2
:10142000000F013BF9D041EA0C0195E70CEAD153DA
:1014300092EA0C0F08D142027FF47DAF93EA0C0FC1
:101440007FF470AF084676E793EA0C0F04D14B02A5
:101450003FF44CAF08466EE730F0004C18BF31F057
:10146000004CCAD130F000427FF45CAF31F0004351
:101470007FF43CAF5FE700BF4FF0FF3C06E000BFEA
:101480004FF0010C02E000BF4FF0010C4DF804CD0D
:101490004FEA40024FEA41037FEA226C18BF7FEA1D
:1014A000236C11D001B052EA530C18BF90EA010F1F
:1014B00058BFB2EB030088BFC81738BF6FEAE170AE
:1014C00018BF40F0010070477FEA226C02D15FEA4A
:1014D000402C05D17FEA236CE4D15FEA412CE1D0B6
:1014E0005DF8040B704700BF844608466146FFE77D
:1014F0000FB5FFF7C9FF002848BF10F1000F0FBD5F
:101500004DF808EDFFF7F4FF0CBF012000205DF857
:1015100008FB00BF4DF808EDFFF7EAFF34BF0120DC
:1015200000205DF808FB00BF4DF808EDFFF7E0FF75
:1015300094BF012000205DF808FB00BF4DF808EDC6
:10154000FFF7D2FF94BF012000205DF808FB00BF29
:101550004DF808EDFFF7C8FF34BF012000205DF80B
:1015600008FB00BF4FEA40024FEA41037FEA226CCA
:1015700002D15FEA402C08D17FEA236C02D15FEAF6
:10158000412C02D14FF0000070474FF0010070472E
:101590004FEA4002B2F1FE4F0FD34FF09E03B3EB80
:1015A00012620DD94FEA002343F0004310F0004FC0
:1015B00023FA02F018BF404270474FF00000704716
:1015C00012F1610F01D1420205D110F0004008BFB5
:1015D0006FF0004070474FF0000070472DE9F04178
:1015E00088B000240494059406940794344B9A69B7
:1015F00042F010029A619A6902F010020092009A79
:101600009A6942F020029A619A6902F020020192DE
:10161000019A9A6942F004029A619A6902F00402FE
:101620000292029A9A6942F008029A619B6903F059
:1016300008030393039B234D22462021284600F0F4
:10164000FDFDC023049312230593012706974FF055
:101650000308CDF81C8004A91B4800F0E1FC04231A
:10166000049302260596CDF81C8004A9284600F0B4
:10167000D7FC082304930594069404A9284600F097
:10168000CFFC4FF400530493104B0593069404A928
:101690000F4800F0C5FC2023049305970694079695
:1016A00004A9284600F0BCFC22462146282000F070
:1016B00085FC282000F092FC08B0BDE8F08100BF56
:1016C0000010024000080140000C01400000111011
:1016D0000010014008B50B480B4B03600B4B4360F7
:1016E00000238360C3604FF48042026143618361E1
:1016F000C361036201F042F800B908BD00F0CCFA02
:10170000FBE700BF2004002000540040A086010039
:1017100010B586B0002302930393049305930268E7
:10172000114B9A4201D006B010BD104CA36943F092
:101730000803A361A36903F008030093009BC0237F
:101740000293122303930323059302A9084800F090
:1017500067FCE36943F40013E361E36903F40013F6
:101760000193019BDFE700BF0054004000100240DE
:10177000000C014000B587B000238DF817306423BA
:101780000293012301930DF1170200926B22D021E5
:10179000024801F0D1F807B05DF804FB20040020F6
:1017A000F0B589B006460C4617461D4664230293E1
:1017B0000E23019304AB009301233B22D0211D484B
:1017C00001F06CF99DF810209DF8113043EA0223D6
:1017D0003A889B1A33809DF812209DF8133043EA13
:1017E00002237A889B1A73809DF814209DF8153087
:1017F00043EA0223BA889B1AB3809DF818209DF80B
:10180000193043EA02232A889B1A23809DF81A2064
:101810009DF81B3043EA02236A889B1A63809DF877
:101820001C309DF81D2042EA0322AB88D31AA38006
:1018300009B0F0BD2004002070B58AB006460D4600
:10184000002407940894099404940594069427E0CE
:101850002B463246694602A8FFF7A2FFBDF90820D1
:10186000079B13440793BDF90A20089B1344089370
:10187000BDF90C20099B13440993BDF90030049A6B
:1018800013440493BDF90230059A13440593BDF93E
:101890000430069A13440693052000F035FB01340A
:1018A000C72CD5DD079A164B83FB0201D217C2EB7A
:1018B000A1123280089A83FB0201D217C2EBA11257
:1018C0007280099A83FB0201D217C2EBA112B28087
:1018D000049A83FB0201D217C2EBA1122A80059A57
:1018E00083FB0201D217C2EBA1126A80069A83FB26
:1018F0000213D217C2EBA313AB800AB070BD00BFB6
:101900001F85EB51000000002DE9F04F83B08046A9
:101910000D4617461E46DDF830A0B0F90000FFF76F
:1019200007FC4FF06251FFF757FC0446B8F902007C
:10193000FFF7FEFB4FF06251FFF74EFC8346B8F90C
:101940000400FFF7F5FB4FF06251FFF745FC8046BE
:1019500001465846FEF73CFC5749FFF73DFCFFF7B0
:1019600073F853A3D3E90023FFF7F0F9FFF7D6FA92
:10197000814659465846FFF72FFC8346414640466C
:10198000FFF72AFC01465846FFF71EFBFEF704FC52
:10199000014604F10040FEF71BFC4749FFF71CFC21
:1019A000FFF752F842A3D3E90023FFF7CFF9FFF77F
:1019B000B5FA009000F0A2FA8046DFF800B1DBF83B
:1019C0000000A8EB0000FFF7AFFB3D49FFF7B8FCB4
:1019D0000446CBF80080B5F90000FFF7A9FB3949B0
:1019E000FFF7AEFC8346B5F90200FFF7A1FB3549CE
:1019F000FFF7A6FC8046B5F90400FFF799FB3149D3
:101A0000FFF79EFC01903D6859462046FFF7E4FB36
:101A100001462846FFF7D8FA2B49FFF7DDFB0546BC
:101A20002A494846FFF7D8FB01462846FFF7CCFA7B
:101A30003860356841462046FFF7CEFB0146284610
:101A4000FFF7C2FA2049FFF7C7FB05461F49009878
:101A5000FFF7C2FB01462846FFF7B6FA3060DAF816
:101A6000005001992046FFF7B7FB01462846FFF7D3
:101A7000ABFA0446CAF800001549FFF75FFD40B114
:101A800013492046FFF79EFACAF8000003B0BDE8EC
:101A9000F08F00212046FFF73DFD0028F6D00C49CD
:101AA0002046FFF791FACAF80000EFE7AFF3008095
:101AB000182D4454FB2109400000344374040020D5
:101AC00000007A440000034348E17A3F00D7A33C7A
:101AD0000000B44310B5B0F1000C1EDB0024002060
:101AE00086460130174A82FB0C324FEAEC73C3EB97
:101AF000A20303EB8302ACEB4202303201F80E206A
:101B000062460FFA83FC092AEADC1CB12D230B5430
:101B10000EF10200421E00230FE0CCF1000C0FFA80
:101B20008CFC0124DBE711F803C011F802E001F896
:101B300003E001F802C00133013A9342F3DB0023D2
:101B40000B5410BD676666662DE9F04105460C46EC
:101B50000021FFF7DFFC78BB00262846FFF718FDC1
:101B60000746FFF7E5FA01462846FFF72BFA8046BD
:101B7000214638B2FFF7AEFF0546471C2E232354FB
:101B800015494046FFF728FBFFF702FD134A82FB89
:101B90000032C317C3EBA203AA1C03F13001E155C5
:101BA00003EB8303A0EB4303E81C3033A35466B973
:101BB00000232354BDE8F08105F100450126CCE760
:101BC000231813F8013C235401380028F8DC2D2396
:101BD0002370281DECE700BF0000C84267666666F8
:101BE00070B59AB00E46154600231C4606E004F177
:101BF0006801694401F8642C01330134224AD25C43
:101C0000002AF4D101AB1919FFF79EFF0444002309
:101C100006E004F16801694401F8642C01330134E1
:101C20001A4AD25C002AF4D101AB19193046FFF7E9
:101C30008BFF0444002306E004F168026A4402F8C2
:101C4000641C01330134124AD15C0029F4D101AB88
:101C500019192846FFF778FF0444631C04F1680251
:101C60006A440D2102F8641C023468336B440A2272
:101C700003F8642C4FF0FF33A2B201A9054801F02C
:101C8000CAFC1AB070BD00BF9C370008A43700081A
:101C9000B03700087804002072B6FEE700B591B0B6
:101CA0002822002106A8FEF79FFC0023019302933F
:101CB000039304930593012206924FF48033079314
:101CC0000A9202220D920E934FF4E0130F9306A88E
:101CD00001F0A8F880B90F2301930221029100239B
:101CE00003934FF480620492059301A801F0CCFAAB
:101CF00020B911B05DF804FBFFF7CEFFFFF7CCFF72
:101D000000B58FB000F0DCF8FFF7C8FFFFF766FC06
:101D100000F066F8FFF7DEFCFFF72CFD0023ADF8BE
:101D20002030ADF82230ADF82430ADF81830ADF8E1
:101D30001A30ADF81C30002305930493039306A9D1
:101D400008A8FFF779FD06AB08AA0AA90CA8FFF7B7
:101D500027FD03AB009304AB05AA0AA90CA8FFF763
:101D6000D3FD039A04990598FFF73AFF022000F08B
:101D7000CBF8E8E782B00E4B9A6942F001029A6113
:101D80009A6902F001020092009ADA6942F08052E8
:101D9000DA61DB6903F080530193019B054A5368C4
:101DA00023F0E06343F00073536002B0704700BF5C
:101DB0000010024000000140FEE7FEE7FEE7FEE7FC
:101DC000FEE770477047704708B500F08BF808BD14
:101DD00008B54FF4005000F039FA08BD7047000014
:101DE00008B50A480A4B03604FF4E133436000230F
:101DF0008360C36003610C2242618361C36101F0AF
:101E0000DAFB00B908BDFFF747FFFBE778040020C5
:101E10000044004000B587B000230293039304936D
:101E200005930268114B9A4202D007B05DF804FB9B
:101E300003F5E633DA6942F40032DA61DA6902F472
:101E400000320092009A9A6942F004029A619B69FA
:101E500003F004030193019B0C23029302230393D9
:101E6000059302A9024800F0DBF8DEE700440040D9
:101E70000008014010B504460E4B1A784FF47A73EF
:101E8000B3FBF2F30C4A1068B0FBF3F000F0B4F8C7
:101E900068B90F2C01D901200AE0002221464FF039
:101EA000FF3000F08BF8054B1C60002000E00120A3
:101EB00010BD00BF2C0100202801002030010020AF
:101EC00008B5074A136843F010031360032000F0BD
:101ED00063F80020FFF7CEFFFFF74CFF002008BD9E
:101EE00000200240034A1168034B1B780B44136027
:101EF000704700BFC00400202C010020014B18686F
:101F0000704700BFC004002038B50446FFF7F6FF55
:101F10000546B4F1FF3F02D0044B1B781C44FFF789
:101F2000EDFF401BA042FAD338BD00BF2C010020BA
:101F3000002808DB0901C9B200F1604000F56140EA
:101F400080F80013704700F00F000901C9B2014B7F
:101F50001954704714ED00E000B500F00700C0F11F
:101F6000070CBCF1040F28BF4FF0040C031D062B17
:101F70000FD9C31E4FF0FF3E0EFA0CF021EA00010C
:101F800099400EFA03FE22EA0E0241EA02005DF8D1
:101F900004FB0023EEE70000074AD36823F4E06364
:101FA0001B041B0C000200F4E060034343F0BF631A
:101FB00043F40033D360704700ED00E010B50446F1
:101FC000054BD868C0F30220FFF7C6FF0146204644
:101FD000FFF7AEFF10BD00BF00ED00E0002807DBFB
:101FE00000F01F02400901239340024A42F82030CA
:101FF000704700BF00E100E00138B0F1807F0BD2F4
:102000004FF0E0235861054AF02182F823100020A8
:10201000986107221A6170470120704700ED00E0C7
:1020200070B582B00024A446A1E07E4DAB4214D02E
:102030000CD8A5F58015AB420FD005F57025AB4245
:102040000BD0A5F58015AB4210D106E0764DAB4222
:1020500003D005F58035AB4208D18B68002B50D0FA
:10206000012B49D04261082400E0CC68BEF1FF0F8B
:1020700049D806464FEA8C0233680F25954023EA7B
:10208000050304FA02F2134333604B6813F0805FD8
:102090006BD0664B9A6942F001029A619B6903F02A
:1020A00001030193019B4FEA9C02951C604B53F87E
:1020B00025600CF00305AD000F23AB4026EA0306B4
:1020C0005C4B984226D003F58063984200F08C80E8
:1020D00003F58063984200F0898003F5806398429D
:1020E00016D0042317E0CC680434BFE7CC6808346A
:1020F000BCE7CC680C34B9E702610824B6E70024D9
:10210000B4E70424B2E7061DACF108029200B3E77D
:10211000032300E00023AB4033430232444D45F833
:1021200022304B6813F4801F62D0434A936843EA1D
:102130000E0393604B6813F4001F5FD03E4AD368D0
:1021400043EA0E03D3604B6813F4003F5CD03A4A75
:10215000536843EA0E0353604B6813F4803F59D031
:10216000354A136843EA0E0313600CF1010C0B6847
:1021700033FA0CF254D0012202FA0CF203EA020EF6
:1021800032EA0303F1D14B68122B3FF64EAF122B0C
:102190003FF66CAF01A555F823F000BF5B200008A7
:1021A0006B200008ED200008FF2000086D200008CB
:1021B0006D2000086D2000086D2000086D200008CB
:1021C0006D2000086D2000086D2000086D200008BB
:1021D0006D2000086D2000086D2000086D200008AB
:1021E000E7200008F3200008012394E7022392E788
:1021F000114A936823EA0E0393609BE70E4AD36863
:1022000023EA0E03D3609EE70B4A536823EA0E03CA
:102210005360A1E7084A136823EA0E031360A4E79A
:1022200002B070BD0000221000003110001002400A
:102230000000014000080140000401400AB10161B2
:1022400070470904016170477047000008B5054BED
:102250005B69034200D108BD024B5861FFF7F4FFF0
:10226000F9E700BF0004014003685A6912F4806F67
:1022700001D1002070476FF480625A61002303632C
:10228000202280F83D2080F83E30026C42F00402AB
:10229000026480F83C30012070472DE9F041064689
:1022A0000C46174698463BE0FFF728FE069BC01AEF
:1022B000404502D8B8F1000F32D1012D18D0336853
:1022C0009B6924EA03039BB2B3FA83F35B099F4241
:1022D00026D100233363202286F83D2086F83E3045
:1022E000326C42F02002326486F83C30012027E054
:1022F00033685B6924EA03039BB2B3FA83F35B0997
:10230000E5E733685B6924EA030C1FFA8CFCBCFA2E
:102310008CFC4FEA5C1C674511D1B8F1FF3FC3D17B
:10232000C4F30745012DECD033689B6924EA030C04
:102330001FFA8CFCBCFA8CFC4FEA5C1CEBE700201B
:10234000BDE8F0812DE9F84305460E4690469946D2
:1023500053E01A6842F400721A602B686FF48062CE
:102360005A6100232B63202285F83D2085F83E30FA
:102370002A6C42F004022A6485F83C3001204AE0CD
:10238000FFF7BCFDA0EB0900404502D8B8F1000FF3
:1023900033D1012F17D02B689B6926EA03039BB228
:1023A000003B18BF012343B300232B63202285F891
:1023B0003D2085F83E302A6C42F020022A6485F8E0
:1023C0003C30012027E02B685B6926EA03039BB2BF
:1023D000003B18BF0123E6E72B689C6926EA04044A
:1023E000A4B2003C18BF0124A4B12B685A6912F4AE
:1023F000806FAED1B8F1FF3FC2D1C6F30747012FBE
:10240000EAD12B685C6926EA0404A4B2003C18BF38
:102410000124E9E70020BDE8F88370B504460D46C5
:10242000164623685B6913F0800F21D12046FFF721
:102430001BFFF8B9B5F1FF3FF3D0FFF75FFD801B3D
:10244000A84201D8002DECD123685B6913F0800FFE
:10245000E7D100232363202284F83D2084F83E3016
:10246000226C42F02002226484F83C30012000E01B
:10247000002070BD0120FCE72DE9F04385B0044643
:102480000D4691461F46DDF830800D9E03681968A1
:1024900041F4807119600096434600224FF001110B
:1024A000FFF7FBFE60B9236805F0FE051D613346AA
:1024B000424626492046FFF745FF68B1012008E063
:1024C00023681B6813F4807F02D04FF400732364E9
:1024D000032005B0BDE8F0830023039323685A6905
:1024E00003929B690393039B324641462046FFF7C4
:1024F00094FF30B9012F0FD123685FFA89F61E616E
:10250000E7E7236C042B01D00120E2E7226813687F
:1025100043F400731360F7E723684FEA19221A6146
:10252000324641462046FFF778FF20B923685FFA1C
:1025300089F61E61CDE7236C042B01D00120C8E78A
:102540002268136843F400731360F7E70200010088
:102550002DE9F04784B004460D46164699460C9F77
:10256000DDF834800268136843F480631360036805
:10257000196841F480711960CDF800803B46002253
:102580004FF00111FFF789FE70B95FFA85FA2368F1
:1025900005F0FE051D6143463A4641492046FFF7D6
:1025A000D1FE68B1012008E023681B6813F4807F26
:1025B00002D04FF400732364032004B0BDE8F08719
:1025C0000023039323685A6903929B690393039B37
:1025D000424639462046FFF720FF80B9B9F1010F86
:1025E00018D12368F6B21E61424639462046FFF7ED
:1025F00014FF68B3236C042B24D00120DDE7236C87
:10260000042B01D00120D8E72268136843F400733B
:102610001360F7E72368320A1A61424639462046BA
:10262000FFF7FBFE18B92368F6B21E61DCE7236CE6
:10263000042B01D00120C0E72268136843F4007323
:102640001360F7E72268136843F400731360D4E75C
:102650002268136843F480731360CDF800803B4612
:1026600000224FF001112046FFF717FE68B92268DB
:102670004AF00103136143463A4609492046FFF7F1
:1026800061FE002899D0012097E723681B6813F4A6
:10269000807F02D04FF40073236403208DE700BFD6
:1026A0000200010070B504460D46164623685B69BA
:1026B00013F0040F21D12046FFF7D6FDF8B9B5F18C
:1026C000FF3FF3D0FFF71AFC801BA84201D8002D72
:1026D000ECD123685B6913F0040FE7D10023236377
:1026E000202284F83D2084F83E30226C42F0200203
:1026F000226484F83C30012000E0002070BD0120FD
:10270000FCE770B504460D46164614E06FF0100263
:102710005A6100232363202284F83D2084F83E3050
:10272000226C226484F83C30012025E023685B6938
:1027300013F0400F10D02368586910F0400F1AD1E1
:10274000586910F0100FE1D1FFF7D8FB801BA842A9
:10275000ECD8002DEFD1E9E700232363202284F891
:102760003D2084F83E30226C42F02002226484F83E
:102770003C30012000E0002070BD0000002800F087
:10278000CC8070B5044690F83D30002B77D02423E0
:1027900084F83D302268136823F001031360226837
:1027A000136843F4004313602268136823F4004362
:1027B000136000F025FE62685A4B9A4264D85A4B67
:1027C00098428CBF00230123002B40F0A88057497A
:1027D000A1FB00318B0C25686A6822F03F0242EAB7
:1027E00091426A6021680A6A22F03F0266684D4D94
:1027F000AE424FD8013313430B622168CA6922F4F9
:102800004F4222F0FF026568464B9D424CD8431E62
:102810006D00B3FBF5F3013340F6FC70034278D052
:10282000C3F30B031A43CA6121680B6823F0C0038A
:10283000E269206A024313430B6021688B6823F42A
:10284000034323F0FF032269E068024313438B60D4
:102850002168CB6823F0FF036269A0690243134338
:10286000CB602268136843F00103136000202064EA
:10287000202384F83D30206384F83E0070BD80F84A
:102880003C30FEF745FF82E7294B98428CBF00237E
:10289000012399E74FF4967505FB03F3254DA5FB3E
:1028A00003539B090133A6E7A668BEB9431E05EB97
:1028B000450CB3FBFCF30133C3F30B03B3FA83F30F
:1028C0005B0943BBC6B9431E05EB4505B3FBF5F3F6
:1028D0000133C3F30B0343F40043A3E7431E05EBAB
:1028E000850C0CEB8C0CB3FBFCF30133C3F30B0333
:1028F000B3FA83F35B09E4E7431E05EB850505EBBB
:102900008505B3FBF5F30133C3F30B0343F44043F5
:1029100088E7042386E7012384E70120704701202C
:10292000ACE700BFA08601007F841E0083DE1B434E
:10293000FF083D00D34D62102DE9F04383B00446FB
:102940000F46904699460C9EFFF7D8FA054694F834
:102950003D00C0B2202803D0022003B0BDE8F083C0
:102960000095192301224B492046FFF796FC0028C9
:1029700040F0898094F83C30012B00F086800123E0
:1029800084F83C3023681A6812F0010F03D11A68EA
:1029900042F001021A602268136823F40063136096
:1029A000212384F83D30402384F83E300023236403
:1029B0000A9B6362BDF82C306385638D2385364B9B
:1029C000E362019500964B46424639462046FFF7A2
:1029D00053FD00285BD1238D002B35D02A4631468C
:1029E0002046FFF71AFD20BB626A236812781A613D
:1029F000626A531C6362218D013989B22185638D1E
:102A00009BB2013B9BB263852368586910F0040FA9
:102A1000E1D00029DFD052781A61636A0133636222
:102A2000238D013B2385638D9BB2013B9BB2638564
:102A3000D1E7236C042B01D001208EE722681368B4
:102A400043F400731360F7E72A4631462046FFF748
:102A500029FE50B1236C042B01D001207DE72268B0
:102A6000136843F400731360F7E72268136843F4B4
:102A700000731360202384F83D30002384F83E3037
:102A800084F83C3069E7022067E7022065E701200F
:102A900063E700BF020010000000FFFF2DE9F043D4
:102AA00089B004460F4690469946129E002307932C
:102AB000FFF724FA054694F83D00C0B2202804D060
:102AC0000227384609B0BDE8F0830095192301229A
:102AD00081492046FFF7E1FB002840F07C8194F813
:102AE0003C30012B00F07981012384F83C302368CD
:102AF0001A6812F0010F03D11A6842F001021A603D
:102B00002268136823F400631360222384F83D30A5
:102B1000402384F83E3000232364109B6362BDF899
:102B200044306385638D23856C4BE3620195009689
:102B30004B46424639462046FFF70AFD0746002825
:102B400040F04D81238D5BB9039323685A6903924A
:102B50009A690392039A1A6842F400721A60F2E0CA
:102B6000012B0FD0022B21D02268136843F480631D
:102B700013600023069323685A6906929B690693A3
:102B8000069BE0E02268136823F48063136072B64A
:102B90000023049323685A6904929A690492049A60
:102BA0001A6842F400721A6062B6CCE022681368B8
:102BB00043F40063136072B60023059323685A69D7
:102BC00005929A690592059A1A6822F480621A6041
:102BD00062B6B8E02A4631462046FFF792FD00284B
:102BE00040F0FF8023681A69636A1A70636A0133D0
:102BF0006362238D013B2385638D9BB2013B9BB2B6
:102C00006385A0E000953346002235492046FFF752
:102C100044FB002840F0E9802268136823F48063B5
:102C2000136072B623681A69636A1A70636A0133A3
:102C30006362238D013B2385638D9BB2013B9BB275
:102C40006385284B1B68DB08274AA2FB03231B0A6A
:102C500003EB8303C3EBC3030793079B013B07937A
:102C6000079B002B28D023685A6912F0040FF4D078
:102C70001A6842F400721A6023681A69636A1A704B
:102C8000636A01336362238D013B2385638D9BB2AD
:102C9000013B9BB2638562B623681A69636A1A7046
:102CA000636A01336362238D013B2385638D9BB28D
:102CB000013B9BB2638546E02363202284F83D20DC
:102CC00084F83E30226C42F02002226462B684F81E
:102CD0003C300127F5E600BF020010000000FFFFB6
:102CE000040001002801002089B5F8142A46314665
:102CF0002046FFF706FD002879D123681A69636A28
:102D00001A70636A01336362228D013A92B222859E
:102D1000638D9BB2013B9BB263852368596911F0B7
:102D2000040F10D0032A48D023681A69636A1A7006
:102D3000636A01336362238D013B2385638D9BB2FC
:102D4000013B9BB26385238D002B3BD0032BCDD859
:102D5000012B3FF43FAF022B7FF454AF0095334675
:102D6000002224492046FFF798FA00283BD172B68A
:102D70002268136843F40073136023681A69636A56
:102D80001A70636A01336362238D013B2385638D6F
:102D90009BB2013B9BB2638562B623681A69636A82
:102DA0001A70636A01336362238D013B2385638D4F
:102DB0009BB2013B9BB26385C5E71A6822F480622F
:102DC0001A60B1E7202384F83D30002384F83E30B8
:102DD00084F83C3075E6022773E6022771E6012786
:102DE0006FE601276DE601276BE6012769E60127FB
:102DF00067E600BF0400010082B0084B1B68084A68
:102E0000A2FB03235B0A00FB03F3019300BF019BBA
:102E10005A1E0192002BF9D102B070472801002000
:102E2000D34D6210002800F0F18170B582B00446E5
:102E3000036813F0010F2CD0994B5B6803F00C036F
:102E4000042B1DD0964B5B6803F00C03082B12D0AB
:102E50006368B3F5803F41D0002B55D103F1804327
:102E600003F504331A6822F480321A601A6822F4D7
:102E700080221A6037E08A4B5B6813F4803FE7D00A
:102E8000874B1B6813F4003F03D06368002B00F0EE
:102E9000BF81236813F0020F75D0814B5B6813F07C
:102EA0000C0F5FD07E4B5B6803F00C03082B54D0F3
:102EB0002369002B00F08A807A4B01221A60FFF709
:102EC0001DF80546764B1B6813F0020F75D1FFF70E
:102ED00015F8401B0228F5D903209EE1704A1368BB
:102EE00043F480331360636843B3FFF707F8054684
:102EF0006B4B1B6813F4003FCBD1FEF7FFFF401B69
:102F00006428F5D9032088E1B3F5A02F09D0644BDC
:102F10001A6822F480321A601A6822F480221A6039
:102F2000E1E703F18043A3F53C331A6842F48022C1
:102F30001A601A6842F480321A60D4E7FEF7DEFFA6
:102F40000546574B1B6813F4003FA2D0FEF7D6FF8F
:102F5000401B6428F5D903205FE1514B5B6813F4F3
:102F6000803FA5D14E4B1B6813F0020F03D023699D
:102F7000012B40F04F814A4A136823F0F80361693E
:102F800043EAC1031360236813F0080F33D0A36929
:102F9000002B5CD0434B0122C3F88024FEF7AEFF28
:102FA00005463F4B5B6A13F0020F21D1FEF7A6FFE7
:102FB000401B0228F5D903202FE1394A136823F07A
:102FC000F803616943EAC1031360DCE7354B002273
:102FD0001A60FEF793FF0546314B1B6813F0020F92
:102FE000D1D0FEF78BFF401B0228F5D9032014E156
:102FF0000120FFF701FF236813F0040F00F0968013
:10300000274BDB6913F0805F34D1254BDA6942F03E
:103010008052DA61DB6903F080530193019B012543
:10302000214B1B6813F4807F26D0E368012B3DD031
:10303000002B53D103F1804303F504331A6A22F0C5
:1030400001021A621A6A22F004021A6233E0154B76
:103050000022C3F88024FEF751FF0546104B5B6A3F
:1030600013F0020FC7D0FEF749FF401B0228F5D925
:103070000320D2E00025D3E70B4A136843F48073A2
:103080001360FEF73BFF0646074B1B6813F4807F77
:10309000CBD1FEF733FF801B6428F5D90320BCE0B9
:1030A0000010024000004242007000405F4A136A74
:1030B00043F001031362E36833B3FEF71FFF0646D4
:1030C0005A4B1B6A13F0020F2FD1FEF717FF801B1C
:1030D00041F288339842F3D903209EE0052B09D0B2
:1030E000524B1A6A22F001021A621A6A22F0040292
:1030F0001A62E0E74D4B1A6A42F004021A621A6A39
:1031000042F001021A62D6E7FEF7F8FE0646474B88
:103110001B6A13F0020F08D0FEF7F0FE801B41F28D
:1031200088339842F3D9032077E0E5B9E369002BAF
:1031300072D03E4A526802F00C02082A56D0022B86
:1031400017D03B4B00221A66FEF7D8FE0446374BD9
:103150001B6813F0007F47D0FEF7D0FE001B02284B
:10316000F5D9032059E0314AD36923F08053D36164
:10317000DCE72F4B00221A66FEF7C0FE05462B4BFC
:103180001B6813F0007F06D0FEF7B8FE401B022834
:10319000F5D9032041E0236AB3F5803F1AD02349D3
:1031A0004B6823F47413226A606A024313434B6032
:1031B0001F4B01221A66FEF7A1FE04461B4B1B683B
:1031C00013F0007F0ED1FEF799FE001B0228F5D9FF
:1031D000032022E0154A536823F40033A1680B430F
:1031E0005360DCE7002018E0002016E0012B16D029
:1031F0000E4B5B6803F48031226A914211D103F4D3
:103200007013626A93420ED1002006E001207047DD
:10321000012002E0012000E0002002B070BD01208A
:10322000FBE70120F9E70120F7E700BF00100240AB
:10323000000042420F4B5B6803F00C02082A01D0E9
:103240000D487047C3F383420C49885C13F4803FF8
:103250000BD0084B5B68C3F34043094AD35C064A72
:1032600002FB00F0B0FBF3F07047064B03FB00F0ED
:10327000704700BF0010024000127A00D4370008E7
:10328000D037000800093D00002800F0A08070B58C
:103290000D460446524B1B6803F007038B420BD2CA
:1032A0004F4A136823F007030B431360136803F0BE
:1032B00007038B4240F08D80236813F0020F17D074
:1032C00013F0040F04D0474A536843F4E06353609B
:1032D000236813F0080F04D0424A536843F4605344
:1032E0005360404A536823F0F003A1680B435360D6
:1032F000236813F0010F31D06368012B20D0022B1B
:1033000025D0384A126812F0020F64D035494A6855
:1033100022F0030213434B60FEF7F0FD0646314BEB
:103320005B6803F00C036268B3EB820F16D0FEF704
:10333000E5FD801B41F288339842F0D9032045E037
:10334000284A126812F4003FE0D101203EE0254AED
:10335000126812F0007FD9D1012037E0204B1B68A2
:1033600003F00703AB420AD91D4A136823F0070391
:103370002B431360136803F00703AB422DD123687E
:1033800013F0040F06D0174A536823F4E063E16892
:103390000B435360236813F0080F07D0114A53689A
:1033A00023F46053216943EAC1035360FFF742FFEE
:1033B0000C4B5B68C3F303130B4AD35CD8400B4B35
:1033C00018600B4B1868FEF755FD002070BD0120FA
:1033D00070470120FAE70120F8E70120F6E700BF77
:1033E0000020024000100240C037000828010020E1
:1033F00030010020014B1868704700BF28010020F1
:1034000008B5FFF7F7FF044B5B68C3F30223034AD9
:10341000D35CD84008BD00BF00100240B837000898
:1034200008B5FFF7E7FF044B5B68C3F3C223034A09
:10343000D35CD84008BD00BF00100240B837000878
:10344000026802F10C0353E8003F23F490730C323E
:1034500042E800310029F3D1026802F1140353E875
:10346000003F23F00103143242E800310029F3D178
:10347000036B012B05D0202380F842300023036327
:103480007047026802F10C0353E8003F23F0100379
:103490000C3242E800310029F3D1ECE710B50446C4
:1034A0000268136923F44053C1680B4313618368B6
:1034B0000269134342691A430168CB6823F4B0538D
:1034C00023F00C031343CB600268536923F4407369
:1034D00081690B4353610268134B9A4220D0FFF776
:1034E0008FFF024602EB820202EB820263689B00BE
:1034F000B2FBF3F20D48A0FB02314909642303FB40
:1035000011231B013233A0FB03035B0903F0F0021C
:1035100002EB011203F00F03216813448B6010BD0E
:10352000FFF77EFF0246DDE7003801401F85EB51C3
:103530002DE9F04383B005460E4617469946DDF85F
:1035400028802B681C6836EA04040CBF0124002480
:10355000BC4228D1B8F1FF3FF3D0FEF7CFFCA0EB7F
:103560000900404523D8B8F1000F22D02B68DA6853
:1035700012F0040FE5D0802EE3D0402EE1D01A687F
:1035800012F0080FDDD0002401941A6801925B68E4
:103590000193019B2846FFF753FF08236B6485F8CE
:1035A0004040012000E0002003B0BDE8F08303208C
:1035B000FAE70320F8E760B310B5044690F841300D
:1035C00013B3242384F841302268D36823F40053D2
:1035D000D3602046FFF762FF2268136923F490430B
:1035E00013612268536923F02A0353612268D36868
:1035F00043F40053D36000206064202384F84130FA
:1036000084F84230606310BD80F84030FEF702FC61
:10361000D7E7012070472DE9F04182B01E4690F8AF
:103620004130DBB2202B56D104460D46904600298E
:1036300055D00AB901204FE000234364212380F8CC
:103640004130FEF75BFC0746A4F82480A4F82680EE
:10365000A368B3F5805F02D04FF0000814E023693F
:103660002BB34FF000080FE0202384F841300320F3
:1036700032E038F8023B2268C3F308035360E28C5F
:1036800092B2013A92B2E284E38C9BB293B100967B
:103690003B46002280212046FFF74AFF0028E3D165
:1036A000002DE6D015F8012B23685A60E7E7A846FD
:1036B0000025E9E700963B46002240212046FFF71F
:1036C00037FF18B9202384F8413005E0202384F81F
:1036D0004130032000E0022002B0BDE8F08101206B
:1036E000FAE70000FEF77AFB0B480C490C4A00236E
:1036F00002E0D458C4500433C4188C42F9D3094AA8
:10370000094C002301E013600432A242FBD3FCF712
:10371000C3FFFEF7F5FA70470000002034010020D7
:10372000F037000834010020C4040020FEE7000048
:10373000024B13B10248FCF7D7BF704700000000EE
:10374000F5060008F8B500BFF8BC08BC9E467047F7
:0C375000F8B500BFF8BC08BC9E467047EE
:10375C00DB0F49BFE4CB1640E4CB16C00000008061
:10376C00DB0F4940DB0F49C03863ED3EDA0F493FB0
:10377C005E987B3FDA0FC93F6937AC316821223341
:10378C00B40F14336821A2330000803F6042A20DB5
:10379C0050697463683A20002C20526F6C6C3A208C
:1037AC00000000002C205961773A20000000000036
:1037BC0001020304000000000000000001020304E9
:1037CC0006070809010200000203040506070809A0
:0837DC000A0B0C0D0E0F10107A
:0837E4003137000879010008EB
:0437EC00510100087F
:1037F0000800002000000000000000005001002030
:10380000B80100202002002000000000000000009D
:1038100000000000000000000000000000000000A8
:103820000000000000000000000000000000000098
:103830000000000000000000000000000000000088
:103840000000000000000000000000000000000078
:103850000000000000000000000000000000000068
:103860000000000000000000000000000000000058
:103870000000000000000000000000000000000048
:103880000000000000000000000000000000000038
:1038900001000000000000000E33CDAB34126DE6D5
:1038A000ECDE05000B00000000000000000000003E
:1038B0000000000000000000000000000000000008
:1038C00000000000000000000000000000000000F8
:1038D00000000000000000000000000000000000E8
:1038E00000000000000000000000000000000000D8
:1038F00000000000000000000000000000000000C8
:1039000000000000000000000000000000000000B7
:10391000000000000000000000127A00010000001A
:043920001000000093
:04000005080036E5D4
:00000001FF
