:020000040800F2
:1000000000500020F51D0008810800088308000842
:10001000850800088708000889080008000000001B
:100020000000000000000000000000008B08000835
:100030008D080008000000008F08000891080008E3
:100040003D1E00083D1E00083D1E00083D1E000824
:100050003D1E00083D1E00083D1E00083D1E000814
:100060003D1E00083D1E00083D1E00083D1E000804
:100070003D1E00083D1E00083D1E00083D1E0008F4
:100080003D1E00083D1E00083D1E00083D1E0008E4
:100090003D1E00083D1E00083D1E00083D1E0008D4
:1000A0003D1E00083D1E00083D1E00083D1E0008C4
:1000B0003D1E00083D1E00083D1E00083D1E0008B4
:1000C0003D1E00083D1E00083D1E00083D1E0008A4
:1000D0003D1E00083D1E00083D1E00083D1E000894
:1000E000990800083D1E00083D1E000800000000A1
:1000F0000000000000000000000000000000000000
:0C01000000000000000000005FF808F1A3
:10010C000348044B834202D0034B03B1184770479A
:10011C000C0000200C000020000000000548064BDD
:10012C001B1AD90F01EBA301491002D0034B03B1E9
:10013C00184770470C0000200C0000200000000045
:10014C0010B5064C237843B9FFF7DAFF044B13B113
:10015C000448AFF300800123237010BD0C00002075
:10016C0000000000541E000808B5044B1BB10449E4
:10017C000448AFF30080BDE80840CFE70000000062
:10018C0010000020541E0008830730B547D0541EC1
:10019C00002A3ED0CAB2034601E0013C39D303F831
:1001AC00012B9D07F9D1032C2CD9CDB205EB0525DC
:1001BC000F2C05EB054535D9A4F1100222F00F0CDC
:1001CC0003F1100EE6444FEA121C1A46C2E9005520
:1001DC00C2E9025510327245F8D10CF1010214F04B
:1001EC000C0F03EB021204F00F0C13D0ACF1040350
:1001FC0023F003030433134442F8045B9342FBD112
:10020C000CF003042CB1C9B21C4403F8011BA3422B
:10021C00FBD130BD64461346002CF4D1F9E70346FC
:10022C001446C0E71A46A446E0E700BF830710B5A2
:10023C00044610D10268A2F1013323EA020313F041
:10024C00803F08D150F8042FA2F1013323EA0203B6
:10025C0013F0803FF6D003781BB110F8013F002B50
:10026C00FBD100F031F8204610BD00BF70B50F4B2C
:10027C000F4DAB42A3EB050607D0B610002455F882
:10028C00043B01349847A642F9D801F0DDFD094D35
:10029C00094B5E1BAB424FEAA60606D0002455F86C
:1002AC00043B01349847A642F9D870BDB81E00082B
:1002BC00B81E0008B81E0008C01E00080023014626
:1002CC001A46184600F072B880EA0102844612F011
:1002DC00030F4FD111F0030F32D14DF8044D11F033
:1002EC00040F51F8043B0BD0A3F101329A4312F0E6
:1002FC00803F04BF4CF8043B51F8043B16D100BFBF
:10030C0051F8044BA3F101329A4312F0803FA4F14F
:10031C0001320BD14CF8043BA24312F0803F04BFD6
:10032C0051F8043B4CF8044BEAD023460CF8013B43
:10033C0013F0FF0F4FEA3323F8D15DF8044B7047ED
:10034C0011F0010F06D011F8012B0CF8012B002A2B
:10035C0008BF704711F0020FBFD031F8022B12F01A
:10036C00FF0F16BF2CF8022B8CF8002012F47F4FD5
:10037C00B3D1704711F8012B0CF8012B002AF9D1DD
:10038C00704700BF38B5074D074C2C1BA41005D087
:10039C00013C55F8043D9847002CF9D1BDE8384094
:1003AC0001F058BDC41E0008C01E000870B4164DE4
:1003BC002C681CB365681F2D23DC38B9AB1C0135C8
:1003CC00656044F82310002070BC704704EB850C6A
:1003DC000228CCF88820D4F888614FF0010202FA88
:1003EC0005F246EA0206C4F88861CCF80831E5D17A
:1003FC00D4F88C311343C4F88C31DFE7034C2C60F8
:10040C00D8E74FF0FF30DFE7280000202C00002059
:10041C00F0B589B000240494059406940794324BEB
:10042C009A6942F010029A619A6902F010020092E5
:10043C00009A9A6942F020029A619A6902F02002AD
:10044C000192019A9A6942F004029A619A6902F047
:10045C0004020292029A9A6942F008029A619B691C
:10046C0003F008030393039B204D224620212846CA
:10047C0000F042FC4FF4005304931D4B059306947B
:10048C0004A91C4800F02AFB2023049301230593A4
:10049C0006940226079604A9284600F01FFB4FF489
:1004AC0060430493059606940327079704A9124802
:1004BC0000F014FB042304930596079704A928461F
:1004CC0000F00CFB082304930594069404A9284619
:1004DC0000F004FB22462146282000F0CDFA28200B
:1004EC0000F0DAFA09B0F0BD00100240000801403B
:1004FC000000111000100140000C0140F0B585B057
:10050C0006460D461446BB238DF80730134F4FF0AB
:10051C00FF3301220DF10701384601F042F84FF08C
:10052C00FF33062202A9384601F047FA9DF808204D
:10053C009DF8093043EA022333809DF80A209DF888
:10054C000B3043EA02232B809DF80C209DF80D30D4
:10055C0043EA0223238005B0F0BD00BFBC0100209C
:10056C0000B583B08DF804008DF805104FF0FF3303
:10057C00022201A9024801F014F803B05DF804FB53
:10058C00BC01002008B500216B20FFF7E9FF00211A
:10059C001C20FFF7E5FF00211B20FFF7E1FF08BD42
:1005AC0030B583B0002823DB002500239E460133A1
:1005BC00184A82FB002CC217C2EBAC0202EB820C75
:1005CC00A0EB4C0C0CF1300C0EF108046C4404F84C
:1005DC0008CC844610B2BCF1090FE7DC35B1083306
:1005EC006B442D2203F8082C0EF1020300220BE0C1
:1005FC00404200B20125D8E7013B03F108006844F2
:10060C0010F8080C88540132002BF5DC00238B54B5
:10061C0003B030BD6766666670B5A4B006460D467D
:10062C001446264A0BAB1068516803C312891A8012
:10063C005A2200210DF13600FFF7A6FD204B93E85E
:10064C0003000390ADF810101E4B93E803000190CB
:10065C00ADF808101C4B1B68ADF800301B0C8DF866
:10066C00023009A93046FFF79BFF07A92846FFF780
:10067C0097FF05A92046FFF793FF09A90BA8FFF7E1
:10068C00D5FD03A90BA8FFF7D1FD07A90BA8FFF710
:10069C00CDFD01A90BA8FFF7C9FD05A90BA8FFF714
:1006AC00C5FD69460BA8FFF7C1FD4FF47A736322B1
:1006BC000BA9064801F031FB24B070BD6C1E00087C
:1006CC00781E0008801E0008881E000814020020F6
:1006DC0072B6FEE700B591B02822002106A8FFF7FC
:1006EC0053FD002301930293039304930593022378
:1006FC00069301220A9210220B920D934FF4E013F1
:10070C000F9306A800F024FB78B90F230193022362
:10071C0002930023039304930593012101A800F095
:10072C0049FD20B911B05DF804FBFFF7D1FFFFF7CD
:10073C00CFFF00B583B000F021F9FFF7CBFFFFF737
:10074C0067FE00F019F800F0A9F8FFF71BFF0DF198
:10075C00020201A90DF10600FFF7D0FEBDF902203F
:10076C00BDF90410BDF90600FFF756FF4FF4FA70FF
:10077C0000F028F9EBE7000008B50D480D4B0360BD
:10078C004FF48273436000238360C3600361436151
:10079C004FF400728261C3610362436283620A2375
:1007AC00C36200F0A3FE00B908BDFFF791FFFBE7A1
:1007BC00BC0100200038004010B586B00023029325
:1007CC000393049305930268174B9A4201D006B029
:1007DC0010BD03F5EC33DA6942F48042DA61DA6970
:1007EC0002F480420092009A9A6942F008029A61DF
:1007FC009B6903F008030193019B4FF42043029380
:10080C000223039303230593084C02A9204600F00E
:10081C0065F94FF48043029300230393049302A9D8
:10082C00204600F05BF9D2E700380040000C014094
:10083C0082B00E4B9A6942F001029A619A6902F0F9
:10084C0001020092009ADA6942F08052DA61DB69A7
:10085C0003F080530193019B054A536823F0E06336
:10086C0043F00073536002B0704700BF00100240A9
:10087C0000000140FEE7FEE7FEE7FEE7FEE77047FB
:10088C007047704708B500F08BF808BD08B54FF4F9
:10089C00005000F039FA08BD7047000008B50A484E
:1008AC000A4B03604FF4E133436000238360C36061
:1008BC0003610C2242618361C36101F0FEF900B94E
:1008CC0008BDFFF705FFFBE71402002000440040C1
:1008DC0000B587B000230293039304930593026839
:1008EC00114B9A4202D007B05DF804FB03F5E633D6
:1008FC00DA6942F40032DA61DA6902F40032009209
:10090C00009A9A6942F004029A619B6903F004030D
:10091C000193019B0C23029302230393059302A9D9
:10092C00024800F0DBF8DEE700440040000801401C
:10093C0010B504460E4B1A784FF47A73B3FBF2F3EE
:10094C000C4A1068B0FBF3F000F0B4F868B90F2C47
:10095C0001D901200AE0002221464FF0FF3000F0BF
:10096C008BF8054B1C60002000E0012010BD00BF7F
:10097C0004000020000000200800002008B5074AF1
:10098C00136843F010031360032000F063F8002099
:10099C00FFF7CEFFFFF74CFF002008BD0020024000
:1009AC00034A1168034B1B780B441360704700BF5C
:1009BC005C02002004000020014B1868704700BF47
:1009CC005C02002038B50446FFF7F6FF0546B4F18B
:1009DC00FF3F02D0044B1B781C44FFF7EDFF401B7C
:1009EC00A042FAD338BD00BF04000020002808DB69
:1009FC000901C9B200F1604000F5614080F80013B4
:100A0C00704700F00F000901C9B2014B195470472F
:100A1C0014ED00E000B500F00700C0F1070CBCF1CC
:100A2C00040F28BF4FF0040C031D062B0FD9C31E57
:100A3C004FF0FF3E0EFA0CF021EA000199400EFA3D
:100A4C0003FE22EA0E0241EA02005DF804FB0023D9
:100A5C00EEE70000074AD36823F4E0631B041B0C89
:100A6C00000200F4E060034343F0BF6343F400333F
:100A7C00D360704700ED00E010B50446054BD86814
:100A8C00C0F30220FFF7C6FF01462046FFF7AEFF7A
:100A9C0010BD00BF00ED00E0002807DB00F01F02D6
:100AAC00400901239340024A42F82030704700BFAE
:100ABC0000E100E00138B0F1807F0BD24FF0E02371
:100ACC005861054AF02182F8231000209861072212
:100ADC001A6170470120704700ED00E070B582B0DC
:100AEC000024A446A1E07E4DAB4214D00CD8A5F551
:100AFC008015AB420FD005F57025AB420BD0A5F598
:100B0C008015AB4210D106E0764DAB4203D005F513
:100B1C008035AB4208D18B68002B50D0012B49D0CB
:100B2C004261082400E0CC68BEF1FF0F49D80646AC
:100B3C004FEA8C0233680F25954023EA050304FA2B
:100B4C0002F2134333604B6813F0805F6BD0664B3B
:100B5C009A6942F001029A619B6903F001030193C7
:100B6C00019B4FEA9C02951C604B53F825600CF0DE
:100B7C000305AD000F23AB4026EA03065C4B9842FD
:100B8C0026D003F58063984200F08C8003F58063D7
:100B9C00984200F0898003F58063984216D00423B4
:100BAC0017E0CC680434BFE7CC680834BCE7CC68E9
:100BBC000C34B9E702610824B6E70024B4E7042436
:100BCC00B2E7061DACF108029200B3E7032300E084
:100BDC000023AB4033430232444D45F822304B687E
:100BEC0013F4801F62D0434A936843EA0E03936068
:100BFC004B6813F4001F5FD03E4AD36843EA0E03E0
:100C0C00D3604B6813F4003F5CD03A4A536843EA14
:100C1C000E0353604B6813F4803F59D0354A136868
:100C2C0043EA0E0313600CF1010C0B6833FA0CF25F
:100C3C0054D0012202FA0CF203EA020E32EA030348
:100C4C00F1D14B68122B3FF64EAF122B3FF66CAF27
:100C5C0001A555F823F000BF230B0008330B000847
:100C6C00B50B0008C70B0008350B0008350B000846
:100C7C00350B0008350B0008350B0008350B000848
:100C8C00350B0008350B0008350B0008350B000838
:100C9C00350B0008350B0008350B0008AF0B0008AE
:100CAC00BB0B0008012394E7022392E7114A9368D7
:100CBC0023EA0E0393609BE70E4AD36823EA0E03E4
:100CCC00D3609EE70B4A536823EA0E035360A1E7F7
:100CDC00084A136823EA0E031360A4E702B070BD40
:100CEC0000002210000031100010024000000140F2
:100CFC0000080140000401400AB101617047090479
:100D0C00016170477047000008B5054B5B690342F1
:100D1C0000D108BD024B5861FFF7F4FFF9E700BFA3
:100D2C000004014082B0084B1B68084AA2FB032355
:100D3C005B0A00FB03F3019300BF019B5A1E019257
:100D4C00002BF9D102B0704700000020D34D621087
:100D5C00002800F0F18170B582B00446036813F0EE
:100D6C00010F2CD0994B5B6803F00C03042B1DD0A6
:100D7C00964B5B6803F00C03082B12D06368B3F539
:100D8C00803F41D0002B55D103F1804303F5043350
:100D9C001A6822F480321A601A6822F480221A60CF
:100DAC0037E08A4B5B6813F4803FE7D0874B1B68B6
:100DBC0013F4003F03D06368002B00F0BF8123685D
:100DCC0013F0020F75D0814B5B6813F00C0F5FD0E2
:100DDC007E4B5B6803F00C03082B54D02369002B6B
:100DEC0000F08A807A4B01221A60FFF7E5FD054678
:100DFC00764B1B6813F0020F75D1FFF7DDFD401B1E
:100E0C000228F5D903209EE1704A136843F480331D
:100E1C001360636843B3FFF7CFFD05466B4B1B684C
:100E2C0013F4003FCBD1FFF7C7FD401B6428F5D965
:100E3C00032088E1B3F5A02F09D0644B1A6822F483
:100E4C0080321A601A6822F480221A60E1E703F1FA
:100E5C008043A3F53C331A6842F480221A601A6866
:100E6C0042F480321A60D4E7FFF7A6FD0546574BD3
:100E7C001B6813F4003FA2D0FFF79EFD401B6428B3
:100E8C00F5D903205FE1514B5B6813F4803FA5D18A
:100E9C004E4B1B6813F0020F03D02369012B40F05B
:100EAC004F814A4A136823F0F803616943EAC1038E
:100EBC001360236813F0080F33D0A369002B5CD0A8
:100ECC00434B0122C3F88024FFF776FD05463F4BC8
:100EDC005B6A13F0020F21D1FFF76EFD401B022855
:100EEC00F5D903202FE1394A136823F0F80361691F
:100EFC0043EAC1031360DCE7354B00221A60FFF7AD
:100F0C005BFD0546314B1B6813F0020FD1D0FFF788
:100F1C0053FD401B0228F5D9032014E10120FFF7F3
:100F2C0001FF236813F0040F00F09680274BDB6958
:100F3C0013F0805F34D1254BDA6942F08052DA61CC
:100F4C00DB6903F080530193019B0125214B1B6846
:100F5C0013F4807F26D0E368012B3DD0002B53D1B6
:100F6C0003F1804303F504331A6A22F001021A627A
:100F7C001A6A22F004021A6233E0154B0022C3F8FD
:100F8C008024FFF719FD0546104B5B6A13F0020F26
:100F9C00C7D0FFF711FD401B0228F5D90320D2E082
:100FAC000025D3E70B4A136843F480731360FFF7F3
:100FBC0003FD0646074B1B6813F4807FCBD1FFF76C
:100FCC00FBFC801B6428F5D90320BCE00010024018
:100FDC0000004242007000405F4A136A43F0010374
:100FEC001362E36833B3FFF7E7FC06465A4B1B6A00
:100FFC0013F0020F2FD1FFF7DFFC801B41F2883377
:10100C009842F3D903209EE0052B09D0524B1A6A63
:10101C0022F001021A621A6A22F004021A62E0E754
:10102C004D4B1A6A42F004021A621A6A42F001022B
:10103C001A62D6E7FFF7C0FC0646474B1B6A13F053
:10104C00020F08D0FFF7B8FC801B41F2883398429E
:10105C00F3D9032077E0E5B9E369002B72D03E4A5F
:10106C00526802F00C02082A56D0022B17D03B4BC8
:10107C0000221A66FFF7A0FC0446374B1B6813F0DE
:10108C00007F47D0FFF798FC001B0228F5D90320FE
:10109C0059E0314AD36923F08053D361DCE72F4BFD
:1010AC0000221A66FFF788FC05462B4B1B6813F0D1
:1010BC00007F06D0FFF780FC401B0228F5D90320E7
:1010CC0041E0236AB3F5803F1AD023494B6823F4DF
:1010DC007413226A606A024313434B601F4B012254
:1010EC001A66FFF769FC04461B4B1B6813F0007F64
:1010FC000ED1FFF761FC001B0228F5D9032022E07A
:10110C00154A536823F40033A1680B435360DCE7A2
:10111C00002018E0002016E0012B16D00E4B5B6867
:10112C0003F48031226A914211D103F47013626A84
:10113C0093420ED1002006E001207047012002E00E
:10114C00012000E0002002B070BD0120FBE701206F
:10115C00F9E70120F7E700BF00100240000042420F
:10116C000F4B5B6803F00C02082A01D00D48704746
:10117C00C3F383420C49885C13F4803F0BD0084BBB
:10118C005B68C3F34043094AD35C064A02FB00F098
:10119C00B0FBF3F07047064B03FB00F0704700BF49
:1011AC000010024000127A00A81E0008A41E0008BD
:1011BC0000093D00002800F0A08070B50D460446E3
:1011CC00524B1B6803F007038B420BD24F4A136838
:1011DC0023F007030B431360136803F007038B42E0
:1011EC0040F08D80236813F0020F17D013F0040F1A
:1011FC0004D0474A536843F4E0635360236813F008
:10120C00080F04D0424A536843F460535360404A79
:10121C00536823F0F003A1680B435360236813F069
:10122C00010F31D06368012B20D0022B25D0384A16
:10123C00126812F0020F64D035494A6822F003029A
:10124C0013434B60FFF7B8FB0646314B5B6803F06A
:10125C000C036268B3EB820F16D0FFF7ADFB801B5B
:10126C0041F288339842F0D9032045E0284A1268AD
:10127C0012F4003FE0D101203EE0254A126812F042
:10128C00007FD9D1012037E0204B1B6803F0070306
:10129C00AB420AD91D4A136823F007032B43136092
:1012AC00136803F00703AB422DD1236813F0040F2E
:1012BC0006D0174A536823F4E063E1680B4353608C
:1012CC00236813F0080F07D0114A536823F46053B6
:1012DC00216943EAC1035360FFF742FF0C4B5B6883
:1012EC00C3F303130B4AD35CD8400B4B18600B4B66
:1012FC001868FFF71DFB002070BD0120704701200E
:10130C00FAE70120F8E70120F6E700BF00200240D1
:10131C0000100240941E000800000020080000206D
:10132C00014B1868704700BF0000002008B5FFF79C
:10133C00F7FF044B5B68C3F30223034AD35CD8402A
:10134C0008BD00BF001002408C1E000808B5FFF756
:10135C00E7FF044B5B68C3F3C223034AD35CD8405A
:10136C0008BD00BF001002408C1E00082DE9F0479C
:10137C0082B00546884617461E46FFF71DFB0A9BA2
:10138C001B1A03EB0609FFF717FB8246284B1B6859
:10139C00C3F3CB3309FB03F301932B689C6838EA46
:1013AC0004040CBF01230023BB423DD0B6F1FF3F28
:1013BC00F3D0FFF701FBA0EB0A00484507D2019AD6
:1013CC0002B14A46019B013B01939146E5E72A682D
:1013DC00536823F0E00353606B68B3F5827F0BD046
:1013EC00AB6AB3F5005F14D0012385F851300023AC
:1013FC0085F85030032018E0AB68B3F5004F02D0ED
:10140C00B3F5806FECD12A68136823F040031360A6
:10141C00E6E72A68136823F4005313602A681368FC
:10142C0043F400531360DFE7002002B0BDE8F087FF
:10143C000000002070B582B006460C46154600929E
:10144C000B4601220221FFF791FF48B90095234674
:10145C00002280213046FFF789FF38B902B070BDF9
:10146C00736D43F0200373650320F7E7736D43F04E
:10147C00200373650320F1E710B582B004460B46D8
:10148C004168B1F5827F10D06168B1F5827F03D1DC
:10149C00A168B1F5806F15D0009200228021204602
:1014AC00FFF764FFE0B902B010BD8168B1F5004FE1
:1014BC0002D0B1F5806FE7D12068016821F04001BE
:1014CC000160E1E70092002201212046FFF74EFF68
:1014DC000028E8D0636D43F0200363650320E2E746
:1014EC00636D43F0200363650320DCE7002856D0CE
:1014FC0010B50446436A33B94368B3F5827F05D00F
:10150C000023C36102E00023036143610023A36253
:10151C0094F85130002B3CD0022384F851302268CF
:10152C00136823F040031360636803F48273A268AA
:10153C0002F404421343E26802F40062134322698A
:10154C0002F002021343626902F001021343A26922
:10155C0002F400721343E26902F038021343226A68
:10156C0002F080021343A26A02F400522168134372
:10157C000B60638B226803F0040353602268D36909
:10158C0023F40063D36100206065012384F851309B
:10159C0010BD84F850302046FFF70EF9BCE701204F
:1015AC0070472DE9F04383B00446894690461D46AA
:1015BC00FFF702FA94F85160F6B2012E40F0CC809D
:1015CC000746B9F1000F00F0C880B8F1000F00F029
:1015DC00C48094F85030012B00F0C380012384F8B0
:1015EC005030032384F8513000236365C4F83090E5
:1015FC00A4F83480A4F83680A363A387E3876364DC
:10160C002364A368B3F5004F1ED023681A6812F048
:10161C00400F03D11A6842F040021A60E368B3F538
:10162C00006F1CD0636813B1B8F1010F5FD1226B4E
:10163C00236812781A73236B01332363E38E9BB2F6
:10164C00013B9BB2E38652E02268136823F040030F
:10165C0013602268136843F480431360D5E7636812
:10166C0013B1B8F1010F15D1226B23681288DA601F
:10167C00236B02332363E38E9BB2013B9BB2E38665
:10168C0008E0FFF799F9C01BA84202D3B5F1FF3F60
:10169C0015D1A5B1E38E9BB2002B42D023689A687A
:1016AC0012F0020FEDD0226B1288DA60236B02333A
:1016BC002363E38E9BB2013B9BB2E386EAE70123F3
:1016CC0084F85130002384F85030032645E0226B17
:1016DC0012781A73236B01332363B4F836C01FFAE4
:1016EC008CFC0CF1FF3C1FFA8CFCA4F836C0E38E8A
:1016FC009BB2B3B123689A6812F0020FE7D1FFF7DF
:10170C005BF9C01BA84202D3B5F1FF3F01D1002DFC
:10171C00EDD1012384F85130002384F85030032696
:10172C001BE03A4629462046FFF784FE08B12023E9
:10173C006365A36833B901932368DA6801929B68E7
:10174C000193019B012384F85130002384F850301D
:10175C00636D13B9002600E00226304603B0BDE8E5
:10176C00F0830226F9E72DE9F04383B0044688465E
:10177C0091461F460A9DFFF71FF9064694F8513013
:10178C00DBB26268012B0AD0B2F5827F40F0058192
:10179C00A268002A40F00581042B40F00481B8F1C6
:1017AC00000F00F00281B9F1000F00F00081002F52
:1017BC0000F0FF8094F85030012B00F0FC800123E6
:1017CC0084F8503094F85130DBB2042B02D005234E
:1017DC0084F8513000236365C4F83890E787A787F5
:1017EC00C4F83080E786A7862364636423681A688C
:1017FC0012F0400F03D11A6842F040021A60E368FD
:10180C00B3F5006F11D063680BB1012F0BD1226BB4
:10181C00236812781A73236B01332363E38E9BB214
:10182C00013B9BB2E386012771E063680BB1012F8A
:10183C000BD1226B23681288DA60236B023323638B
:10184C00E38E9BB2013B9BB2E38601271BE023682E
:10185C009A6812F0010F0ED0E28F92B25AB1DA6888
:10186C00A36B1A80A36B0233A363E38F9BB2013B80
:10187C009BB2E3870127FFF79FF8801BA84202D396
:10188C00B5F1FF3F1ED1E38E9BB21BB9E38F9BB228
:10189C00002B62D023689A6812F0020FD7D0E28E28
:1018AC0092B2002AD3D0002FD1D0226B1288DA60EA
:1018BC00236B02332363E38E9BB2013B9BB2E38623
:1018CC000027C4E7012384F85130002384F85030FA
:1018DC00032063E023689A6812F0010F0ED0E28FA8
:1018EC0092B25AB1DA68A36B1A70A36B0133A3637B
:1018FC00E38F9BB2013B9BB2E3870127FFF75CF8B8
:10190C00831BAB4202D3B5F1FF3F1ED1EDB1E38E89
:10191C009BB213B9E38F9BB2FBB123689A6812F0A8
:10192C00020FD7D0E28E92B2002AD3D0002FD1D0A2
:10193C00226B12781A73236B01332363E38E9BB2F1
:10194C00013B9BB2E3860027C4E7012384F85130A6
:10195C00002384F85030032020E0324629462046EC
:10196C00FFF768FD90B9A36833B901932368DA686F
:10197C0001929B680193019B012384F85130002351
:10198C0084F85030636D4BB1012007E02023636570
:10199C00002384F85030012000E0022003B0BDE8A1
:1019AC00F0830220FAE70220F8E70120F6E7012095
:1019BC00F4E70120F2E70220F0E72DE9F04383B0D1
:1019CC0090F85160F6B2012E40F0B480044689467E
:1019DC0090461D464368B3F5827F01D1836893B36B
:1019EC00FEF7EAFF0746B9F1000F00F0A480B8F14A
:1019FC00000F00F0A08094F85030012B00F09F8075
:101A0C00012384F85030042384F85130002363659B
:101A1C00C4F83890A4F83C80A4F83E802363A386D5
:101A2C00E38623646364A368B3F5004F15D0236881
:101A3C001A6812F0400F03D11A6842F040021A6083
:101A4C00E368F3B143E0042380F85130009513466A
:101A5C000A46FFF788FE06466DE02268136823F0FD
:101A6C00400313602268136823F480431360DEE79D
:101A7C00FEF7A2FFC01BA84202D3B5F1FF3F15D160
:101A8C00A5B1E38F9BB2002B42D023689A6812F069
:101A9C00010FEDD0A26B1B7B1370A36B0133A363FF
:101AAC00E38F9BB2013B9BB2E387EAE7012384F807
:101ABC005130002384F8503003263CE0FEF77CFFC5
:101ACC00C01BA84202D3B5F1FF3F19D1C5B1E38FBA
:101ADC009BB2EBB123689A6812F0010FEED0DA6872
:101AEC00A36B1A80A36B0233A363B4F83EC01FFA36
:101AFC008CFC0CF1FF3C1FFA8CFCA4F83EC0E6E712
:101B0C00012384F85130002384F85030032612E06E
:101B1C003A4629462046FFF7AFFC08B120236365FF
:101B2C00012384F85130002384F85030636D13B9CD
:101B3C00002600E00226304603B0BDE8F083022602
:101B4C00F9E7026802F10C0353E8003F23F49073A9
:101B5C000C3242E800310029F3D1026802F114037F
:101B6C0053E8003F23F00103143242E8003100290E
:101B7C00F3D1036B012B05D0202380F842300023D6
:101B8C0003637047026802F10C0353E8003F23F033
:101B9C0010030C3242E800310029F3D1ECE70000CD
:101BAC0010B504460268136923F44053C1680B4313
:101BBC00136183680269134342691A430168CB6855
:101BCC0023F4B05323F00C031343CB600268536926
:101BDC0023F4407381690B4353610268134B9A429F
:101BEC0020D0FFF7A3FB024602EB820202EB82023B
:101BFC0063689B00B2FBF3F20D48A0FB023149096C
:101C0C00642303FB11231B013233A0FB03035B0989
:101C1C0003F0F00202EB011203F00F0321681344EE
:101C2C008B6010BDFFF792FB0246DDE700380140E8
:101C3C001F85EB512DE9F04383B005460E46174640
:101C4C009946DDF828802B681C6836EA04040CBF22
:101C5C0001240024BC4228D1B8F1FF3FF3D0FEF799
:101C6C00ABFEA0EB0900404523D8B8F1000F22D001
:101C7C002B68DA6812F0040FE5D0802EE3D0402EEA
:101C8C00E1D01A6812F0080FDDD0002401941A6814
:101C9C0001925B680193019B2846FFF752FF0823D2
:101CAC006B6485F84040012000E0002003B0BDE8E3
:101CBC00F0830320FAE70320F8E760B310B504467D
:101CCC0090F8413013B3242384F841302268D36850
:101CDC0023F40053D3602046FFF762FF2268136998
:101CEC0023F4904313612268536923F02A03536150
:101CFC002268D36843F40053D3600020606420232F
:101D0C0084F8413084F84230606310BD80F8403074
:101D1C00FEF7DEFDD7E7012070472DE9F04182B0D8
:101D2C001E4690F84130DBB2202B56D104460D46AE
:101D3C009046002955D00AB901204FE00023436496
:101D4C00212380F84130FEF737FE0746A4F82480A3
:101D5C00A4F82680A368B3F5805F02D04FF000088A
:101D6C0014E023692BB34FF000080FE0202384F814
:101D7C004130032032E038F8023B2268C3F30803F9
:101D8C005360E28C92B2013A92B2E284E38C9BB241
:101D9C0093B100963B46002280212046FFF74AFF74
:101DAC000028E3D1002DE6D015F8012B23685A60EA
:101DBC00E7E7A8460025E9E700963B4600224021CC
:101DCC002046FFF737FF18B9202384F8413005E08F
:101DDC00202384F84130032000E0022002B0BDE84B
:101DEC00F0810120FAE70000FEF756FD0B480C4984
:101DFC000C4A002302E0D458C4500433C4188C425B
:101E0C00F9D3094A094C002301E013600432A242C1
:101E1C00FBD3FEF72BFAFEF78CFC7047000000207A
:101E2C000C000020C41E00080C00002060020020E2
:101E3C00FEE70000024B13B10248FEF73FBA7047B1
:101E4C000000000091030008F8B500BFF8BC08BC06
:101E5C009E467047F8B500BFF8BC08BC9E4670475C
:101E6C00416363656C20583A200000002C20593ADD
:101E7C00200000002C205A3A200000000D0A00001F
:101E8C00000000000102030400000000000000003C
:101E9C0001020304060708090102000002030405FD
:0C1EAC00060708090A0B0C0D0E0F1010A1
:081EB800411E0008750100083D
:041EC0004D010008C8
:0C1EC40000127A00010000001000000075
:0400000508001DF5DD
:00000001FF
