:020000040800F2
:1000000000500020C91100084D0500084F050008E8
:1000100051050008530500085505000800000000C0
:10002000000000000000000000000000570500086C
:1000300059050008000000005B0500085D05000888
:100040001112000811120008111200081112000804
:1000500011120008111200081112000811120008F4
:1000600011120008111200081112000811120008E4
:1000700011120008111200081112000811120008D4
:1000800011120008111200081112000811120008C4
:1000900011120008111200081112000811120008B4
:1000A00011120008111200081112000811120008A4
:1000B0001112000811120008111200081112000894
:1000C0001112000811120008111200081112000884
:1000D0001112000811120008111200081112000874
:1000E0006505000811120008111200080000000048
:1000F0000000000000000000000000000000000000
:0C01000000000000000000005FF808F1A3
:10010C000348044B834202D0034B03B1184770479A
:10011C000C0000200C000020000000000548064BDD
:10012C001B1AD90F01EBA301491002D0034B03B1E9
:10013C00184770470C0000200C0000200000000045
:10014C0010B5064C237843B9FFF7DAFF044B13B113
:10015C000448AFF300800123237010BD0C00002075
:10016C00000000002812000808B5044B1BB104491C
:10017C000448AFF30080BDE80840CFE70000000062
:10018C001000002028120008830730B547D0541EF9
:10019C00002A3ED0CAB2034601E0013C39D303F831
:1001AC00012B9D07F9D1032C2CD9CDB205EB0525DC
:1001BC000F2C05EB054535D9A4F1100222F00F0CDC
:1001CC0003F1100EE6444FEA121C1A46C2E9005520
:1001DC00C2E9025510327245F8D10CF1010214F04B
:1001EC000C0F03EB021204F00F0C13D0ACF1040350
:1001FC0023F003030433134442F8045B9342FBD112
:10020C000CF003042CB1C9B21C4403F8011BA3422B
:10021C00FBD130BD64461346002CF4D1F9E70346FC
:10022C001446C0E71A46A446E0E700BF70B50F4B72
:10023C000F4DAB42A3EB050607D0B610002455F8C2
:10024C00043B01349847A642F9D800F0E7FF094D6A
:10025C00094B5E1BAB424FEAA60606D0002455F8AC
:10026C00043B01349847A642F9D870BD6C120008C3
:10027C006C1200086C12000874120008002301466E
:10028C001A46184600F014B838B5074D074C2C1B0D
:10029C00A41005D0013C55F8043D9847002CF9D129
:1002AC00BDE8384000F0C0BF781200087412000896
:1002BC0070B4164D2C681CB365681F2D23DC38B93F
:1002CC00AB1C0135656044F82310002070BC7047EE
:1002DC0004EB850C0228CCF88820D4F888614FF008
:1002EC00010202FA05F246EA0206C4F88861CCF86B
:1002FC000831E5D1D4F88C311343C4F88C31DFE7E5
:10030C00034C2C60D8E74FF0FF30DFE728000020CB
:10031C002C00002030B589B0002404940594069478
:10032C000794254B9A6942F010029A619A6902F07F
:10033C0010020092009A9A6942F020029A619A691E
:10034C0002F020020192019A9A6942F004029A6129
:10035C009A6902F004020292029A9A6942F0080227
:10036C009A619B6903F008030393039B134D224688
:10037C002021284600F012FB4FF400530493104B3D
:10038C000593069404A90F4800F0FAF9202304936E
:10039C000123059306940223079304A9284600F031
:1003AC00EFF922462146282000F0B8F9282000F069
:1003BC00C5F909B030BD00BF001002400008014073
:1003CC00000011100010014072B6FEE700B591B0AC
:1003DC002822002106A8FFF7D7FE002301930293E1
:1003EC000393049305930223069301220A9210228D
:1003FC000B920D934FF4E0130F9306A800F0FAFA4A
:10040C0078B90F23019302230293002303930493DF
:10041C000593012101A800F01FFD20B911B05DF872
:10042C0004FBFFF7D1FFFFF7CFFF08B500F00CF985
:10043C00FFF7CCFFFFF76EFF00F004F800F094F824
:10044C00FEE7000008B50D480D4B03604FF48273B6
:10045C00436000238360C360036143614FF4007207
:10046C008261C3610362436283620A23C36200F048
:10047C00CFFD00B908BDFFF7A7FFFBE7BC010020CB
:10048C000038004010B586B0002302930393049308
:10049C0005930268174B9A4201D006B010BD03F5C4
:1004AC00EC33DA6942F48042DA61DA6902F48042B0
:1004BC000092009A9A6942F008029A619B6903F0D3
:1004CC0008030193019B4FF42043029302230393EF
:1004DC0003230593084C02A9204600F051F94FF470
:1004EC008043029300230393049302A9204600F057
:1004FC0047F9D2E700380040000C014082B00E4BA7
:10050C009A6942F001029A619A6902F00102009222
:10051C00009ADA6942F08052DA61DB6903F08053A9
:10052C000193019B054A536823F0E06343F0007389
:10053C00536002B0704700BF001002400000014041
:10054C00FEE7FEE7FEE7FEE7FEE770477047704701
:10055C0008B500F08BF808BD08B54FF4005000F05A
:10056C0025FA08BD7047000008B50A480A4B03601D
:10057C004FF4E133436000238360C36003610C22BA
:10058C0042618361C36100F0E9FD00B908BDFFF76A
:10059C001BFFFBE7140200200044004000B587B0AD
:1005AC00002302930393049305930268114B9A4220
:1005BC0002D007B05DF804FB03F5E633DA6942F4C8
:1005CC000032DA61DA6902F400320092009A9A6918
:1005DC0042F004029A619B6903F004030193019BAE
:1005EC000C23029302230393059302A9024800F003
:1005FC00C7F8DEE7004400400008014010B504468F
:10060C000E4B1A784FF47A73B3FBF2F30C4A106862
:10061C00B0FBF3F000F0A0F868B90F2C01D9012061
:10062C000AE0002221464FF0FF3000F077F8054B2E
:10063C001C60002000E0012010BD00BF0400002061
:10064C00000000200800002008B5074A136843F09A
:10065C0010031360032000F04FF80020FFF7CEFFCB
:10066C00FFF74CFF002008BD00200240034A116830
:10067C00034B1B780B441360704700BF5C020020D7
:10068C0004000020014B1868704700BF5C0200207A
:10069C00002808DB0901C9B200F1604000F5614097
:1006AC0080F80013704700F00F000901C9B2014B2C
:1006BC001954704714ED00E000B500F00700C0F1CC
:1006CC00070CBCF1040F28BF4FF0040C031D062BC4
:1006DC000FD9C31E4FF0FF3E0EFA0CF021EA0001B9
:1006EC0099400EFA03FE22EA0E0241EA02005DF87E
:1006FC0004FB0023EEE70000074AD36823F4E06311
:10070C001B041B0C000200F4E060034343F0BF63C6
:10071C0043F40033D360704700ED00E010B504469D
:10072C00054BD868C0F30220FFF7C6FF01462046F0
:10073C00FFF7AEFF10BD00BF00ED00E0002807DBA7
:10074C0000F01F02400901239340024A42F8203076
:10075C00704700BF00E100E00138B0F1807F0BD2A0
:10076C004FF0E0235861054AF02182F82310002055
:10077C00986107221A6170470120704700ED00E074
:10078C0070B582B00024A446A1E07E4DAB4214D0DB
:10079C000CD8A5F58015AB420FD005F57025AB42F2
:1007AC000BD0A5F58015AB4210D106E0764DAB42CF
:1007BC0003D005F58035AB4208D18B68002B50D0A7
:1007CC00012B49D04261082400E0CC68BEF1FF0F38
:1007DC0049D806464FEA8C0233680F25954023EA28
:1007EC00050304FA02F2134333604B6813F0805F85
:1007FC006BD0664B9A6942F001029A619B6903F0D7
:10080C0001030193019B4FEA9C02951C604B53F82A
:10081C0025600CF00305AD000F23AB4026EA030660
:10082C005C4B984226D003F58063984200F08C8094
:10083C0003F58063984200F0898003F58063984249
:10084C0016D0042317E0CC680434BFE7CC68083416
:10085C00BCE7CC680C34B9E702610824B6E7002485
:10086C00B4E70424B2E7061DACF108029200B3E72A
:10087C00032300E00023AB4033430232444D45F8E0
:10088C0022304B6813F4801F62D0434A936843EACA
:10089C000E0393604B6813F4001F5FD03E4AD3687D
:1008AC0043EA0E03D3604B6813F4003F5CD03A4A22
:1008BC00536843EA0E0353604B6813F4803F59D0DE
:1008CC00354A136843EA0E0313600CF1010C0B68F4
:1008DC0033FA0CF254D0012202FA0CF203EA020EA3
:1008EC0032EA0303F1D14B68122B3FF64EAF122BB9
:1008FC003FF66CAF01A555F823F000BFC707000801
:10090C00D7070008590800086B080008D907000829
:10091C00D9070008D9070008D9070008D90700082B
:10092C00D9070008D9070008D9070008D90700081B
:10093C00D9070008D9070008D9070008D90700080B
:10094C00530800085F080008012394E7022392E78C
:10095C00114A936823EA0E0393609BE70E4AD3680F
:10096C0023EA0E03D3609EE70B4A536823EA0E0377
:10097C005360A1E7084A136823EA0E031360A4E747
:10098C0002B070BD000022100000311000100240B7
:10099C000000014000080140000401400AB101615F
:1009AC0070470904016170477047000008B5054B9A
:1009BC005B69034200D108BD024B5861FFF7F4FF9D
:1009CC00F9E700BF0004014082B0084B1B68084ADD
:1009DC00A2FB03235B0A00FB03F3019300BF019B03
:1009EC005A1E0192002BF9D102B070470000002072
:1009FC00D34D6210002800F0F18170B582B004462E
:100A0C00036813F0010F2CD0994B5B6803F00C03B7
:100A1C00042B1DD0964B5B6803F00C03082B12D0F3
:100A2C006368B3F5803F41D0002B55D103F180436F
:100A3C0003F504331A6822F480321A601A6822F41F
:100A4C0080221A6037E08A4B5B6813F4803FE7D052
:100A5C00874B1B6813F4003F03D06368002B00F036
:100A6C00BF81236813F0020F75D0814B5B6813F0C4
:100A7C000C0F5FD07E4B5B6803F00C03082B54D03B
:100A8C002369002B00F08A807A4B01221A60FFF751
:100A9C00F9FD0546764B1B6813F0020F75D1FFF775
:100AAC00F1FD401B0228F5D903209EE1704A136822
:100ABC0043F480331360636843B3FFF7E3FD0546EB
:100ACC006B4B1B6813F4003FCBD1FFF7DBFD401BD6
:100ADC006428F5D9032088E1B3F5A02F09D0644B25
:100AEC001A6822F480321A601A6822F480221A6082
:100AFC00E1E703F18043A3F53C331A6842F480220A
:100B0C001A601A6842F480321A60D4E7FFF7BAFD13
:100B1C000546574B1B6813F4003FA2D0FFF7B2FDFC
:100B2C00401B6428F5D903205FE1514B5B6813F43B
:100B3C00803FA5D14E4B1B6813F0020F03D02369E5
:100B4C00012B40F04F814A4A136823F0F803616986
:100B5C0043EAC1031360236813F0080F33D0A36971
:100B6C00002B5CD0434B0122C3F88024FFF78AFD95
:100B7C0005463F4B5B6A13F0020F21D1FFF782FD54
:100B8C00401B0228F5D903202FE1394A136823F0C2
:100B9C00F803616943EAC1031360DCE7354B0022BB
:100BAC001A60FFF76FFD0546314B1B6813F0020FFF
:100BBC00D1D0FFF767FD401B0228F5D9032014E1C3
:100BCC000120FFF701FF236813F0040F00F096805B
:100BDC00274BDB6913F0805F34D1254BDA6942F087
:100BEC008052DA61DB6903F080530193019B01258C
:100BFC00214B1B6813F4807F26D0E368012B3DD07A
:100C0C00002B53D103F1804303F504331A6A22F00D
:100C1C0001021A621A6A22F004021A6233E0154BBE
:100C2C000022C3F88024FFF72DFD0546104B5B6AAC
:100C3C0013F0020FC7D0FFF725FD401B0228F5D992
:100C4C000320D2E00025D3E70B4A136843F48073EA
:100C5C001360FFF717FD0646074B1B6813F4807FE4
:100C6C00CBD1FFF70FFD801B6428F5D90320BCE026
:100C7C000010024000004242007000405F4A136ABC
:100C8C0043F001031362E36833B3FFF7FBFC064642
:100C9C005A4B1B6A13F0020F2FD1FFF7F3FC801B8A
:100CAC0041F288339842F3D903209EE0052B09D0FA
:100CBC00524B1A6A22F001021A621A6A22F00402DA
:100CCC001A62E0E74D4B1A6A42F004021A621A6A81
:100CDC0042F001021A62D6E7FFF7D4FC0646474BF6
:100CEC001B6A13F0020F08D0FFF7CCFC801B41F2FB
:100CFC0088339842F3D9032077E0E5B9E369002BF8
:100D0C0072D03E4A526802F00C02082A56D0022BCE
:100D1C0017D03B4B00221A66FFF7B4FC0446374B46
:100D2C001B6813F0007F47D0FFF7ACFC001B0228B8
:100D3C00F5D9032059E0314AD36923F08053D361AC
:100D4C00DCE72F4B00221A66FFF79CFC05462B4B69
:100D5C001B6813F0007F06D0FFF794FC401B0228A1
:100D6C00F5D9032041E0236AB3F5803F1AD023491B
:100D7C004B6823F47413226A606A024313434B607A
:100D8C001F4B01221A66FFF77DFC04461B4B1B68A8
:100D9C0013F0007F0ED1FFF775FC001B0228F5D96C
:100DAC00032022E0154A536823F40033A1680B4357
:100DBC005360DCE7002018E0002016E0012B16D071
:100DCC000E4B5B6803F48031226A914211D103F41B
:100DDC007013626A93420ED1002006E00120704726
:100DEC00012002E0012000E0002002B070BD0120D3
:100DFC00FBE70120F9E70120F7E700BF00100240F4
:100E0C00000042420F4B5B6803F00C02082A01D031
:100E1C000D487047C3F383420C49885C13F4803F40
:100E2C000BD0084B5B68C3F34043094AD35C064ABA
:100E3C0002FB00F0B0FBF3F07047064B03FB00F035
:100E4C00704700BF0010024000127A005C120008CC
:100E5C005812000800093D00002800F0A08070B571
:100E6C000D460446524B1B6803F007038B420BD212
:100E7C004F4A136823F007030B431360136803F006
:100E8C0007038B4240F08D80236813F0020F17D0BC
:100E9C0013F0040F04D0474A536843F4E0635360E3
:100EAC00236813F0080F04D0424A536843F460538C
:100EBC005360404A536823F0F003A1680B4353601E
:100ECC00236813F0010F31D06368012B20D0022B63
:100EDC0025D0384A126812F0020F64D035494A689E
:100EEC0022F0030213434B60FFF7CCFB0646314B59
:100EFC005B6803F00C036268B3EB820F16D0FFF74C
:100F0C00C1FB801B41F288339842F0D9032045E0A5
:100F1C00284A126812F4003FE0D101203EE0254A35
:100F2C00126812F0007FD9D1012037E0204B1B68EA
:100F3C0003F00703AB420AD91D4A136823F00703D9
:100F4C002B431360136803F00703AB422DD12368C6
:100F5C0013F0040F06D0174A536823F4E063E168DA
:100F6C000B435360236813F0080F07D0114A5368E2
:100F7C0023F46053216943EAC1035360FFF742FF36
:100F8C000C4B5B68C3F303130B4AD35CD8400B4B7D
:100F9C0018600B4B1868FFF731FB002070BD012067
:100FAC0070470120FAE70120F8E70120F6E700BFBF
:100FBC0000200240001002404812000800000020EF
:100FCC0008000020014B1868704700BF000000208B
:100FDC0008B5FFF7F7FF044B5B68C3F30223034A22
:100FEC00D35CD84008BD00BF00100240401200087E
:100FFC0008B5FFF7E7FF044B5B68C3F3C223034A52
:10100C00D35CD84008BD00BF00100240401200085D
:10101C00002856D010B50446436A33B94368B3F57B
:10102C00827F05D00023C36102E00023036143618A
:10103C000023A36294F85130002B3CD0022384F897
:10104C0051302268136823F040031360636803F483
:10105C008273A26802F404421343E26802F4006251
:10106C001343226902F002021343626902F0010287
:10107C001343A26902F400721343E26902F03802CE
:10108C001343226A02F080021343A26A02F4005254
:10109C00216813430B60638B226803F004035360D5
:1010AC002268D36923F40063D361002060650123B7
:1010BC0084F8513010BD84F850302046FFF7E2F927
:1010CC00BCE701207047000010B5044602681369A4
:1010DC0023F44053C1680B431361836802691343C3
:1010EC0042691A430168CB6823F4B05323F00C0314
:1010FC001343CB600268536923F4407381690B433B
:10110C0053610268134B9A4220D0FFF761FF0246ED
:10111C0002EB820202EB820263689B00B2FBF3F2E9
:10112C000D48A0FB02314909642303FB11231B0169
:10113C003233A0FB03035B0903F0F00202EB011254
:10114C0003F00F03216813448B6010BDFFF750FFB1
:10115C000246DDE7003801401F85EB5160B310B546
:10116C00044690F8413013B3242384F841302268AC
:10117C00D36823F40053D3602046FFF7A5FF226801
:10118C00136923F4904313612268536923F02A03F3
:10119C0053612268D36843F40053D3600020606429
:1011AC00202384F8413084F84230606310BD80F80D
:1011BC004030FFF7F3F9D7E701207047FFF7D2F97A
:1011CC000B480C490C4A002302E0D458C450043399
:1011DC00C4188C42F9D3094A094C002301E013606E
:1011EC000432A242FBD3FFF721F8FFF71EF9704738
:1011FC00000000200C000020781200080C000020D9
:10120C0060020020FEE70000024B13B10248FFF71A
:10121C0035B870470000000095020008F8B500BF13
:10122C00F8BC08BC9E467047F8B500BFF8BC08BCBB
:04123C009E46704713
:101240000000000001020304000000000000000094
:101250000102030406070809010200000203040555
:0C126000060708090A0B0C0D0E0F1010F9
:08126C001512000875010008CD
:041274004D01000820
:0C12780000127A000100000010000000CD
:04000005080011C915
:00000001FF
