:020000040800F2
:10000000005000207936000825210008272100082B
:10001000292100082B2100082D21000800000000E4
:100020000000000000000000000000002F21000878
:1000300031210008000000003321000835210008AC
:10004000C1360008C1360008C1360008C1360008B4
:10005000C1360008C1360008C1360008C1360008A4
:10006000C1360008C1360008C1360008C136000894
:10007000C1360008C1360008C1360008C136000884
:10008000C1360008C1360008C1360008C136000874
:10009000C1360008C1360008C1360008C136000864
:1000A000C1360008C1360008C1360008C136000854
:1000B000C1360008C1360008C1360008C136000844
:1000C000C1360008C1360008C1360008C136000834
:1000D000C1360008C1360008C1360008C136000824
:1000E0003D210008C1360008C136000800000000AC
:1000F0000000000000000000000000000000000000
:0C01000000000000000000005FF808F1A3
:100140000348044B834202D0034B03B11847704766
:100150005405002054050020000000000548064B0F
:100160001B1AD90F01EBA301491002D0034B03B1B5
:100170001847704754050020540500200000000077
:1001800010B5064C237843B9FFF7DAFF044B13B1DF
:100190000448AFF300800123237010BD54050020F4
:1001A00000000000D836000808B5044B1BB1044914
:1001B0000448AFF30080BDE80840CFE7000000002E
:1001C00058050020D8360008830730B547D0541EA4
:1001D000002A3ED0CAB2034601E0013C39D303F8FD
:1001E000012B9D07F9D1032C2CD9CDB205EB0525A8
:1001F0000F2C05EB054535D9A4F1100222F00F0CA8
:1002000003F1100EE6444FEA121C1A46C2E90055EB
:10021000C2E9025510327245F8D10CF1010214F016
:100220000C0F03EB021204F00F0C13D0ACF104031B
:1002300023F003030433134442F8045B9342FBD1DD
:100240000CF003042CB1C9B21C4403F8011BA342F7
:10025000FBD130BD64461346002CF4D1F9E70346C8
:100260001446C0E71A46A446E0E700BF014B1868F1
:10027000704700BF0000002070B50F4B0F4DAB4220
:10028000A3EB050607D0B610002455F8043B013453
:100290009847A642F9D803F01FFA094D094B5E1B97
:1002A000AB424FEAA60606D0002455F8043B0134C1
:1002B0009847A642F9D870BD6C3700086C37000823
:1002C0006C3700087437000800207047024A034961
:1002D000034800F061BB00BF28010020ED150008B5
:1002E000080000200C4B4168994210B5044601D02B
:1002F00001F07CF9A168094B994202D0204601F037
:1003000075F9E168064B994204D02046BDE81040DB
:1003100001F06CB910BD00BF70050020D8050020A9
:1003200040060020002070472DE9F8432A4C2B4955
:10033000DFF8AC90DFF8AC802B4FC4F83811002503
:1003400004230822294604F15C00284EE360C4E936
:100350000055C4E90455A5606566A561FFF734FF43
:10036000234B63670822294604F1C400C4E9074906
:10037000C4E90987C4E91A55C4E91E552567C4F8BC
:10038000CC50C4F88050E662FFF71EFF194BC4F84A
:10039000DC30294604F16803082204F59670C4F89D
:1003A0008430C4E92298C4E92476C4E93455C4E908
:1003B0003855C4F8D850C4F83451C4F8E850FFF7A1
:1003C00003FF04F1D003C4E93C98C4E93E76C4F8C5
:1003D000EC30BDE8F88300BF70050020CD020008B6
:1003E000CD170008F517000835180008591800083F
:1003F0000900010012000200F8B5254BD3F838318E
:100400000646002B3CD0234FD7E90134013B04D5ED
:100410001DE05A1C04F1680419D0B4F90C50013BDA
:10042000002DF6D11C4BE360C4E90155C4E9045525
:1004300065662560A5610822294604F15C00FFF786
:10044000C3FEC4E90C55C4E911552046F8BD3D680A
:100450000DB12F46D8E74FF4D671304600F05EFC60
:10046000044680B10423C0E900530C302946A06043
:100470004FF4D0722546FFF7A7FE3C602F46C3E736
:10048000FFF752FFBFE70C2338603360DDE700BFA2
:1004900070050020280100200100FFFF436B03B11D
:1004A0007047044B044AD3F838314263002BF7D12C
:1004B0003AE700BF70050020E5020008704700BF62
:1004C000704700BF024A0349002000F065BA00BF30
:1004D00028010020C9020008024A0349002000F058
:1004E0005BBA00BF280100202503000870B5044650
:1004F0008AB008460D4600F0E3F9164E626B07908D
:1005000001214318CDE90861022006A9039106954F
:10051000A16805930490A2B1B1F90C204B6E900430
:1005200005D442F4005223F400538A814B669B04A5
:100530000DD403AA204600F017F840B90A200AB0EB
:1005400070BD20460191FFF7A9FF0199E4E74FF044
:10055000FF30F4E734370008024B01461868FFF714
:10056000C5BF00BF000000209368002B00F0F6809C
:100570002DE9F04FB1F90CC01CF0080F83B0904684
:1005800081460C4631D00B697BB31CF00207D8F8CA
:10059000006038D00027D4F824B0E169DFF8BCA2AD
:1005A0003D4655452B463A4628BF53464846C5B1B9
:1005B000D847002840F3C880D8F808301B1A0744F1
:1005C0002D1AC8F80830002B00F0B48055452B4692
:1005D000D4F824B0E16928BF53463A464846002D76
:1005E000E6D1D6E900750836DBE72146484600F03B
:1005F00043FE002840F0AD80B4F90CC0D8F800608C
:100600001CF00207C6D11CF0010A63D12368A1685F
:10061000574618468B46002F58D01CF4007F00F038
:10062000B180B9420A4600F2DD801CF4906F2FD0F1
:10063000216962695D1A02EB420202EBD2726B1C05
:1006400052103B44934292BF93469B461A461CF479
:10065000806F00F0E6801146484600F05FFB0028FE
:1006600000F0F5802A462169019001F007F8A2897F
:10067000019B22F4906242F08002A2815819ABEBF8
:100680000505C4F814B02361A5602060BB463A4656
:100690005146019200F0C2FAA1682368019AA1EBC9
:1006A0000B011A443D46A16022600027D8F80830AB
:1006B0005B1BAA44C8F80830002B3BD02368A16814
:1006C000B4F90CC018468B46002FA6D1D6E900A776
:1006D00008369EE73846BB463D46002D40D00028F0
:1006E00045D03A46D4E904C32068A168AA4228BF8D
:1006F0002A46604504D901EB030A524500F3828083
:10070000934272DCE169D4F824C05A464846E04777
:10071000B0F1000A18DDB7EB0A070FD00120D8F8B6
:100720000830A3EB0A03D344A5EB0A05C8F8083048
:10073000002BD2D1002003B0BDE8F08F21464846FF
:1007400000F032FA0028EAD0B4F90C3043F040034C
:10075000A3814FF0FF3003B0BDE8F08F0020704759
:10076000756833460836002DFAD0D3F800B02A4613
:100770000A21584600F034F9002865D00130A0EB7A
:100780000B07AEE722699A4214D36269BA4211D8C4
:100790006FF00043BB4228BF3B46656A93FBF2F310
:1007A000E16902FB03F348465246A847051ECBDD2C
:1007B0007F1B7BE7B94228BF39460D4618460A46DB
:1007C000514600F02BFAA1682368491B2B44A16015
:1007D00023600029ECD12146484600F0E5F90028C5
:1007E000E6D0B1E7BB463A4652E75946019200F0DF
:1007F00015FA019AA3689B1AA36023681344236027
:10080000924688E75946524600F008FA2368534456
:1008100023602146484600F0C7F900283FF47BAF2B
:1008200092E7484601F04EF8034600287FF426AFD1
:100830002169484600F0DEFDB4F90C300C22C9F8FD
:10084000002023F0800381E76A1C17464AE70C2248
:10085000B4F90C30C9F8002078E700BF00FCFF7F36
:10086000002301461A46184600F0FABF38B5074D76
:10087000074C2C1BA41005D0013C55F8043D9847AB
:10088000002CF9D1BDE8384002F02CBF78370008C1
:1008900074370008000000000000000000000000A5
:1008A0000000000000000000000000000000000048
:1008B0000000000000000000000000000000000038
:1008C00030B490F800F020F007016FF0000C10F049
:1008D000070491F820F040F048804FF000046FF0DA
:1008E0000700D1E9002391F840F000F1080082FAF6
:1008F0004CF2A4FA8CF283FA4CF3A2FA8CF34BBBC1
:10090000D1E9022382FA4CF200F10800A4FA8CF239
:1009100083FA4CF3A2FA8CF3E3B9D1E9042382FA07
:100920004CF200F10800A4FA8CF283FA4CF3A2FA1C
:100930008CF37BB9D1E9062301F1200182FA4CF254
:1009400000F10800A4FA8CF283FA4CF3A2FA8CF3BB
:10095000002BC6D0002A04BF04301A4612BAB2FADD
:1009600082F200EBD20030BC7047D1E9002304F0E2
:100970000305C4F100004FEAC50514F0040F91F817
:1009800040F00CFA05F562EA05021CBF63EA0503B4
:1009900062464FF00004AAE72DE9F843074688466F
:1009A00016464FF00009D6E90154013D10D4A38941
:1009B000012B08D9B4F90E3001332146384602D054
:1009C000C04749EA0009013D6B1C04F16804EED1FF
:1009D0003668002EE7D14846BDE8F88300000000E5
:1009E00001F0FF01102A2BDB10F0070F08D010F8E0
:1009F000013B013A8B422DD010F0070F42B3F6D1E4
:100A0000F0B441EA012141EA014122F007047FF0FC
:100A100000070023F0E80256083C85EA010586EA53
:100A2000010685FA47F5A3FA87F586FA47F6A5FA8F
:100A300087F68EB9EED1F0BC01F0FF0102F007029B
:100A400032B110F8013B013A83EA010313B1F8D146
:100A50000020704701387047002D06BF3546033827
:100A6000073815F0010F07D1013015F4807F02BF60
:100A7000013015F4C03F0130F0BC0138704700BFB1
:100A8000B1F90C20F8B516070C46074649D4496859
:100A900042F400630029A3815FDDA56A002D3ED0EA
:100AA000002112F480523E683960E16961D101236E
:100AB0003846A847451C02466BD0B4F90C30A56AED
:100AC000E169580705D56368D21A236B0BB1E36B54
:100AD000D21A00233846A847411C4CD13968B4F9D2
:100AE0000C301D293FD82F4ACA40D2073BD5226976
:100AF000226023F40062A281DD044FF000026260F4
:100B000001D5002943D0216B3E6041B104F140037F
:100B1000994202D0384600F06DFC00232363002088
:100B2000F8BD0E69002EFAD00D680E6092070CBF5A
:100B30004B690023AD1B8B600CE0D4F824C0E16945
:100B40002B4632463846E047B0F1000CA5EB0C05C9
:100B5000664406DD002DF0DCE1E7E16B00299CDC5A
:100B6000DDE7B4F90C3043F04003A3814FF0FF30D0
:100B7000F8BD226DA5E7B4F90C302269226023F498
:100B80000062A281DB044FF000026260BBD52065E9
:100B9000B9E73B68002B90D01D2B01D0162BE0D17C
:100BA0003E60BCE70100402010B5044682B008B1A9
:100BB000436B53B1B1F90C0008B902B010BD204627
:100BC00002B0BDE81040FFF75BBF0191FFF766FC84
:100BD0000199EFE7A0B138B50C4B1D6804460DB183
:100BE0006B6B4BB1B4F90C0000B938BD21462846F7
:100BF000BDE83840FFF744BF2846FFF74FFCF1E758
:100C0000034A04490448FFF7C7BE00BF00000020A4
:100C100028010020A90B00080800002088420ED9F6
:100C20008B1883420BD900EB020C002A6ED062466F
:100C300013F801CD02F801CD9942F9D170470F2A7E
:100C40000FD8034602F1FF3C002A5FD00CF1010CE3
:100C5000013B8C4411F8012B03F8012F6145F9D1B8
:100C6000704740EA01039B0751D1A2F1100370B510
:100C700001F1200C23F00F0501F1100E00F110041A
:100C8000AC441B095EF8105C44F8105C5EF80C5C28
:100C900044F80C5C5EF8085C44F8085C5EF8045CA0
:100CA00044F8045C0EF1100EE64504F11004E9D19D
:100CB000013312F00C0F01EB031102F00F0400EBF3
:100CC000031328D0043C24F003064FEA940C1E447E
:100CD0001C1F8E465EF8045B44F8045FB442F9D1F1
:100CE0000CF1010402F0030203EB840301EB840125
:100CF00002F1FF3C4AB10CF1010C013B8C4411F8AC
:100D0000012B03F8012F6145F9D170BD704702F145
:100D1000FF3C03469AE72246EAE700BF2DE9F04F81
:100D200001F10B05162D83B0064623D8102900F2D9
:100D3000AF8000F07FFF102518230220C14F3B44F5
:100D4000A3F108025C68944200F025816368E268C0
:100D5000A16823F00303CA602344304691605A68B7
:100D600042F001025A6000F067FF0834204603B0E9
:100D7000BDE8F08F35F0070500F18A80A94200F246
:100D8000878000F057FFB5F5FC7FC0F06D816B0ADE
:100D900000F08280042B00F22481AB0903F13900BA
:100DA00003F1380EC300A74F3B44A3F1080C5C6865
:100DB000A44507D10DE0002AE16880F2E6808C4569
:100DC00007D00C46636823F003035A1B0F2AF2DD99
:100DD0007046DFF874823C69444500F0C380636864
:100DE00023F0030CACEB05030F2B00F34181002B28
:100DF000C7E9048880F22C81BCF5007FD7F804E0B5
:100E000080F0CF804FEADC0101314FEA5C1C012306
:100E100003FA0CF357F83120A2604EEA030E07EBF9
:100E2000C103083BE360C7F804E047F83140D460F1
:100E300083104FF0010C0CFA03FCF44532D81CEA85
:100E40000E0F08D120F003004FEA4C0C1CEA0E0FE5
:100E500000F10400F8D007EBC00AD6468146DEF860
:100E60000C300BE0596821F003014A1B0F2A1C4685
:100E7000DB6800F3C280002A80F2D6809E45F1D163
:100E800009F1010919F0030F0EF1080EE7D118E17D
:100E90000C233360002469E74FF4007340204FF0C7
:100EA0003F0E80E7BC68636823F00309A94503D3BC
:100EB000A9EB05030F2B58DCDFF890B1DBF800201D
:100EC00004EB09031032082002EB0508009300F040
:100ED0006FFCD7F808140131024605D008F1FF383D
:100EE0008044414201EA080841463046009200F041
:100EF000A5FEB0F1FF3F009A824600F0D48004EBDB
:100F00000903834200F2CD80DBF804104144CBF8A2
:100F10000410084602F1FF3C40F0F5801AEA0C0F7D
:100F200040F0F180D7F808A0C84448F00100CAF8A2
:100F30000400DBF82C208A42DBF8302038BFCBF8E5
:100F40002C108A4238BFCBF83010544620F00308EA
:100F5000A845A8EB050301D30F2B06DC304600F0B3
:100F60006BFE97E7D7F804E062E7621943F00103EC
:100F700045F0010565603046BA60536000F05CFEE4
:100F80000834204603B0BDE8F08FA2682344D16046
:100F900030468A60E3E6DC68A3427FF4D7AE0230D5
:100FA00017E7BCF5206F4FEA5C2273D3142A00F2D6
:100FB0000A8102F15C03DB005B32F918FB58083947
:100FC000994203D1E6E09B68994204D05A6822F026
:100FD00003026245F7D8D968C4E902318C60DC604D
:100FE00026E7142B62D9542B00F2F6802B0B03F169
:100FF0006F0003F16E0EC300D5E6D4F808C030468A
:10100000661945F001056560CCF80C30C3F808C0DE
:1010100042F00103C7E90466C6E9028873606250C2
:1010200000F00AFE0834A1E6214430464A6842F046
:1010300001024A6054F8082FD3609A6000F0FCFD6A
:1010400094E600BF3801002040010020AC060020DB
:10105000A4443046DCF8043043F00103CCF80430FB
:1010600000F0EAFD083481E6E80805F1080365E6CA
:10107000621943F0010145F0010565603046C7E99A
:101080000422C2E90288516044F80C3000F0D4FD1B
:1010900008346BE64FEA9C1202F13903DB00383268
:1010A0008BE7BC4228D0BC6860684FE703F15C0066
:1010B00003F15B0EC30076E65AF80839534540F059
:1010C000D88010F0030F00F1FF30F5D17B6823EAE0
:1010D0000C037B604FEA4C0C9C453FF6E3AEBCF141
:1010E000000F04D1DEE64FEA4C0C09F104091CEABA
:1010F000030FF8D04846AEE6DBF804004044CBF8D6
:10110000040002F1FF3CD7F8081401316ED004EB63
:101110000903AAEB03031844CBF804001AF00703F1
:10112000009341D0C3F108018A44D0440A4408EA3C
:101130000C01521A02EA0C013046019100F07EFDCA
:10114000421C6FD00199A0EB0A0000EB0108DBF80C
:101150000420C7F808A048F001001144BC42CAF8B6
:101160000400CBF804103FF4E4AEB9F10F0F40D9FE
:101170006268A9F10C0020F0070002F001020243AE
:101180006260052322180F28C2E9013352D8DAF829
:101190000400CEE692104FF0010C0CFA02F24EEA77
:1011A000020EC7F804E017E70AEB080101EA0C0198
:1011B000521A02EA0C013046019100F03FFD431C37
:1011C000C0D10099C3E7542A17D84FEA1C3202F164
:1011D0006F03DB006E32F0E6B3F5AA7F17D8EB0B96
:1011E00003F1780003F1770EC300DCE5C7F808A42B
:1011F00094E70123CAF80430B0E6B2F5AA7F23D8F9
:101200004FEADC3202F17803DB007732D5E640F2B8
:101210005452934223D8AB0C03F17D0003F17C0EB2
:10122000C300C0E5009BA3F108029044A8EB0A08A4
:1012300000218CE704F10801304600F0DBF8DBF810
:101240000410D7F808A0A2E740F254539A420CD8F1
:101250004FEA9C4202F17D03DB007C32ADE64FF4A5
:101260007E737F204FF07E0E9DE54FF47E737E22CD
:10127000A3E67B682EE700BF38B52F4B1B680546F9
:101280000C4613B15A6B002A4BD0B4F90C30180736
:101290001CD5226922B313F0010107D06169002037
:1012A0004942A060A1613AB1002038BD980758BFFB
:1012B0006169A160002AF7D1190658BF1046F4D51C
:1012C00043F04003A3814FF0FF3038BDD9062CD541
:1012D0005A0712D4226943F00803A381002ADAD105
:1012E00003F42071B1F5007FD5D02146284600F0E7
:1012F000C9FCB4F90C302269CDE7216B51B104F17E
:101300004002914204D0284600F074F8B4F90C3041
:101310000022226322690021C4E9002123F0240372
:10132000D9E71846FFF7BAF8AFE7092243F04003C0
:101330002A60A381C7E700BF000000202DE9F84321
:1013400006460820894600F033FADFF89C800546FF
:10135000304600F06FFCD8F808305F6827F00307CC
:10136000A7F11104A4EB09042C44B4FBF5F4013CEF
:1013700005FB04F4A54208DC0021304600F05EFCC9
:10138000D8F808303B44984205D0304600F054FC71
:101390000020BDE8F8836142304600F04FFC013088
:1013A0000FD0124AD8F808303F1B47F001075F60A2
:1013B000136830461B1B136000F03EFC0120BDE8A3
:1013C000F8830021304600F039FCD8F80820831A51
:1013D0000F2BDADD43F001035360054B03491B6813
:1013E000C01A0860D1E700BF38010020B006002015
:1013F0004005002000297CD0F8B50C46064600F0D8
:1014000019FC54F8043C764FA4F1080523F00101BF
:101410006818D7F808C04268844522F0030200F03B
:101420008380DB07426000EB020C33D454F8084C95
:10143000DCF804302D1B2144AC6807F1080C64452E
:1014400003F0010364D0D5F80CE0C4F80CE0CEF84A
:101450000840002B00F0818041F001036B600160C7
:10146000B1F5007F22D27868CB0801224909013307
:101470008A40024357F833107A6007EBC302083AF8
:10148000C5E9021247F83350CD603046BDE8F84058
:1014900000F0D2BBDCF80430DB072BD541F00103B0
:1014A000B1F5007F44F8043C0160DCD3B1F5206F56
:1014B0004FEA512353D28B0903F1390003F138026B
:1014C000C300F818FB580838984203D161E09B68C4
:1014D000984204D05A6822F003028A42F7D8D868AA
:1014E000C5E902308560DD603046BDE8F84000F0B7
:1014F000A3BB7047114407F1080C836863453FD0D4
:10150000C268DA60936041F001036B606950A7E73D
:10151000002B5FD10A44D0E90213CB60996042F0FE
:1015200001036B60AA50B0E70A44D90707D454F806
:10153000083CED1A1A44D5E90213CB60996042F0D9
:1015400001036B60274BBD601B6893429DD8264BFF
:1015500030461968FFF7F2FE97E71144CDE7142BE8
:1015600008D9542B1DD80B0B03F16F0003F16E0249
:10157000C300A6E703F15C0003F15B02C300A0E730
:1015800041F00103C7E90455C5E902CC6B6069501D
:101590007BE779689210012404FA02F20A437A6028
:1015A0009EE7B3F5AA7F06D8CB0B03F1780003F1D1
:1015B0007702C30085E740F25452934206D88B0C61
:1015C00003F17D0003F17C02C3007AE74FF47E73E0
:1015D0007E2276E741F001036B60016055E700BFB2
:1015E0003801002044050020AC06002070B539B158
:1015F00006460C4608B1436B83B3B4F90C3013B9FB
:101600000025284670BD21463046FFF739FAE36AC7
:10161000054633B1E169304698470028B8BF4FF01E
:10162000FF35A3891B061CD4216B41B104F1400393
:10163000994202D03046FFF7DDFE00232363616C40
:1016400021B13046FFF7D6FE00236364FEF736FF74
:101650000023A381FEF734FF284670BDFEF71EFF6E
:10166000CBE721693046FFF7C5FEDDE7024B0146B7
:101670001868FFF7BBBF00BF00000020844641EAA6
:10168000000313F003036DD1403A41D351F8043BFA
:1016900040F8043B51F8043B40F8043B51F8043B4C
:1016A00040F8043B51F8043B40F8043B51F8043B3C
:1016B00040F8043B51F8043B40F8043B51F8043B2C
:1016C00040F8043B51F8043B40F8043B51F8043B1C
:1016D00040F8043B51F8043B40F8043B51F8043B0C
:1016E00040F8043B51F8043B40F8043B51F8043BFC
:1016F00040F8043B51F8043B40F8043B51F8043BEC
:1017000040F8043B51F8043B40F8043B403ABDD25A
:10171000303211D351F8043B40F8043B51F8043BFC
:1017200040F8043B51F8043B40F8043B51F8043BBB
:1017300040F8043B103AEDD20C3205D351F8043B8B
:1017400040F8043B043AF9D2043208D0D2071CBF57
:1017500011F8013B00F8013B01D30B880380604680
:10176000704700BF082A13D38B078DD010F00303F6
:101770008AD0C3F10403D21ADB071CBF11F8013B66
:1017800000F8013B80D331F8023B20F8023B7BE7B5
:10179000043AD9D3013A11F8013B00F8013BF9D2E0
:1017A0000B7803704B7843708B788370604670477A
:1017B000082802D14FF48050704708B5FEF756FD57
:1017C000162303604FF0FF3008BD00BF10B50C4674
:1017D000B1F90E1000F0F4FA002803DB236D034486
:1017E000236510BDA38923F48053A38110BD00BFDE
:1017F000002070472DE9F0410C46B1F90C101F464E
:10180000CB05054616460BD421F48051A1813B46F9
:10181000B4F90E1032462846BDE8F04100F0F4B9A4
:10182000B4F90E100223002200F0E0FAB4F90C1013
:10183000EAE700BF10B50C46B1F90E1000F0D6FA79
:10184000B4F90C30421C0EBF23F4805343F4805390
:101850002065A38110BD00BFB1F90E1000F000BAE1
:1018600070B4164D2C681CB365681F2D23DC38B985
:10187000AB1C0135656044F82310002070BC704734
:1018800004EB850C0228CCF88820D4F888614FF04E
:10189000010202FA05F246EA0206C4F88861CCF8B1
:1018A0000831E5D1D4F88C311343C4F88C31DFE72B
:1018B000034C2C60D8E74FF0FF30DFE7E006002054
:1018C000E40600202DE9F84F1646002900F0968026
:1018D0000C46804606F10B0500F0ACF954F8041CE8
:1018E000162DA4F1080921F0030758D81025AE429F
:1018F00058D8AF4260DABE4B9A6809EB070C6245D4
:10190000DCF8040000F0908020F0010363445B6881
:10191000DB0768D420F003003B189D4247DDCB076E
:1019200012D454F8083CA9EB030BDBF8043023F085
:101930000302104400EB070A554540F3F68007EB1D
:10194000020A554540F3CC8031464046FFF7E6F9A0
:101950000646002800F0208154F8043C23F00103DF
:101960004B44A0F10802934200F0B4803A1F242AAD
:1019700000F2D780132A00F2A280034622461168A3
:1019800019605168596092689A6021464046FFF795
:1019900031FD404600F050F93046BDE8F88F35F093
:1019A0000705A4D50C23C8F80030002618E01F4610
:1019B000DCE90223D3609A60D9F804307A1B0F2A3D
:1019C00003F0010309EB07001DD83B43C9F80430BD
:1019D000436843F001034360404600F02DF926467A
:1019E0003046BDE8F88FC907AED454F8083CA9EBDF
:1019F000030BDBF8043023F00302A0E7BDE8F84F47
:101A00001146FFF78BB909EB05012B4342F00102A8
:101A1000C9F804304A60436843F001034360083169
:101A20004046FFF7E7FCD7E720F00300C21905F1B5
:101A3000100C624580F29180CA0785D454F8082CB6
:101A4000A9EB020BDBF8042022F00302104400EBA8
:101A5000070AD4453FF773AF5E46DBF80C1056F823
:101A6000080F3A1F242AC160886000F2AE80132A52
:101A700040F2A9802168CBF808106168CBF80C10FF
:101A80001B2A00F2A88008340BF1100221681160B3
:101A900061685160A16891600BEB0501AAEB05023A
:101AA00042F0010299604A60DBF8043003F0010360
:101AB0002B434046CBF8043000F0BEF890E7236893
:101AC0000360636843601B2A3CD804F1080200F1FC
:101AD000080354E750F8043C23F003031F446BE76A
:101AE0003A1F5E46DBF80C3056F8081F242ACB60FC
:101AF000996022D8132A1ED92368CBF8083063686E
:101B0000CBF80C301B2A3BD808340BF110032268A9
:101B10001A6062685A60A2689A6034465746D9468D
:101B20004AE72146FFF77AF82FE7DCE902133A1F6C
:101B3000CB609960D5E73346E9E721463046FFF7A9
:101B40006DF8EAE7A3688360E368C360242A27D0BE
:101B500004F1100200F1100311E709EB050199608F
:101B6000531B43F001034B6054F8043C03F00103A2
:101B70002B43404644F8043C00F05EF826462FE72D
:101B8000A368CBF81030E368CBF81430242A10D0C7
:101B900010340BF11803BAE7404600F04DF804E7A3
:101BA000236903616169416104F1180200F11803BE
:101BB000E5E62369CBF818306369CBF81C3018349C
:101BC0000BF12003A3E7324660E721463046FFF7DA
:101BD00025F8074B60E7A168CBF81010E168CBF857
:101BE0001410242A06D010340BF118024EE700BF5F
:101BF000380100202269CBF818206269CBF81C203C
:101C000018340BF1200241E738B50C46084D8446E4
:101C1000114620461A4600232B60644600F0A4FAC1
:101C2000431C00D038BD2B68002BFBD0236038BD8F
:101C300074080020704700BF704700BF38B5074DDB
:101C40000022044608462A6000F0A8FA431C00D08F
:101C500038BD2B68002BFBD0236038BD74080020F2
:101C600038B5074D0022044608462A6000F08AFA7B
:101C7000431C00D038BD2B68002BFBD0236038BD3F
:101C8000740800202DE9F041B1F90C300C46990799
:101C900096B008D504F143030122C4E9043223605D
:101CA00016B0BDE8F081B4F90E100029064626DB17
:101CB0006A4600F0B1F800281FDB019D05F470456D
:101CC000A5F50055B5FA85F54FF480686D094FF418
:101CD000006741463046FFF721F8E8B1B4F90C300F
:101CE000C4F8148043F0800320602061A3813DBBD1
:101CF0003B43A38116B0BDE8F081B4F90C3013F07A
:101D0000800519D04FF040080025414630462F4647
:101D1000FFF704F80028E1D1B4F90C309A05BFD4DC
:101D200023F0030304F1430243F002030121C4E959
:101D30000421A3812260B3E74FF480682F46C8E7EF
:101D4000B4F90E10304600F07DF810B9B4F90C303B
:101D5000CEE7A38923F0030343F001031BB2C7E7D7
:101D600070B50C46B1F90E10002996B015461E4606
:101D700014DB6A4600F050F800280FDB019901F4EB
:101D80007041A1F50051B1FA81F14FF48063490926
:101D90004FF4006031602B6016B070BDA18911F066
:101DA000800106D000214023084631602B6016B028
:101DB00070BD4FF48063084631602B6016B070BD73
:101DC00038B50C46084D8446114620461A46002375
:101DD0002B60644600F0B8F9431C00D038BD2B6876
:101DE000002BFBD0236038BD7408002038B50C46AA
:101DF000084D8446114620461A4600232B6064464F
:101E000000F0CAF9431C00D038BD2B68002BFBD072
:101E1000236038BD7408002070B50C46084D034699
:101E20000026204611461C462E6000F0AEF9431CE9
:101E300000D070BD2B68002BFBD0236070BD00BFAD
:101E40007408002038B5074D0022044608462A6071
:101E500000F0A0F9431C00D038BD2B68002BFBD04C
:101E6000236038BD740800202DE9F04188B00024BB
:101E70000494059406940794364B9A6942F0100234
:101E80009A619A6902F010020092009A9A6942F0EF
:101E900020029A619A6902F020020192019A9A69DD
:101EA00042F004029A619A6902F004020292029AD4
:101EB0009A6942F008029A619B6903F00803039350
:101EC000039B254D22462021284600F0A7FBC02376
:101ED000049312230593012706974FF00308CDF8CA
:101EE0001C8004A91D4800F08BFA0C2304930226E1
:101EF00005960694CDF81C8004A9284600F080FAC7
:101F0000174A536843F0E06333435360536843F028
:101F1000E06343F0080353604FF400530493114B04
:101F20000593069404A9104800F06AFA202304934C
:101F300005970694079604A9284600F061FA224600
:101F40002146282000F02AFA282000F037FA08B0AD
:101F5000BDE8F0810010024000080140000C014083
:101F600000000140000011100010014008B50B48AE
:101F70000B4B03600B4B436000238360C3604FF443
:101F80008042026143618361C361036200F04AFDE4
:101F900000B908BD00F056F8FBE700BF7808002044
:101FA00000540040A086010010B586B000230293C3
:101FB0000393049305930268114B9A4201D006B033
:101FC00010BD104CA36943F00803A361A36903F09B
:101FD00008030093009BC02302931223039303235F
:101FE000059302A9084800F00BFAE36943F40013D3
:101FF000E361E36903F400130193019BDFE700BF92
:102000000054004000100240000C014000B587B0B1
:102010004FF47A730293012301930DF1170200929A
:102020007522D021064800F0DBFD38B99DF8173045
:10203000682B00D0012007B05DF804FB0120FAE70F
:102040007808002072B6FEE700B591B02822002182
:1020500006A8FEF7B9F800230193029303930493B3
:102060000593012206924FF4803307930A920222CD
:102070000D920E934FF4E0130F9306A800F074FF37
:1020800080B90F23019302210291002303934FF49F
:1020900080620492059301A801F098F920B911B06B
:1020A0005DF804FBFFF7CEFFFFF7CCFF08B500F0AB
:1020B0000BF9FFF7C9FFFFF7D7FE00F095F8FFF720
:1020C00055FFFFF7A3FF18B90348FEF745FAFEE7EF
:1020D0000248FEF741FAFAE7F03600081437000824
:1020E00082B00E4B9A6942F001029A619A6902F03D
:1020F00001020092009ADA6942F08052DA61DB69EB
:1021000003F080530193019B054A536823F0E06379
:1021100043F00073536002B0704700BF00100240EC
:1021200000000140FEE7FEE7FEE7FEE7FEE770473E
:102130007047704708B500F0D9F808BD08B54FF4EE
:10214000005000F073FA08BD70B50C461646002525
:1021500006E0AFF30080214601F8010B01350C4683
:10216000B542F6DB304670BD70B50C46164600250C
:1021700004E014F8010BAFF300800135B542F8DB41
:10218000304670BD4FF0FF3070474FF400534B6046
:1021900000207047012070470020704710B50346AB
:1021A0000C4A0D490D48006840B10C4800680344D2
:1021B000521A934206D8094A136010BD0748084CCA
:1021C0000460F2E7FEF752F80C2303604FF0FF3093
:1021D000F3E700BF0050002000040000CC080020FE
:1021E000200900207047000008B50A480A4B036028
:1021F0004FF4E133436000238360C36003610C222A
:1022000042618361C36101F007FA00B908BDFFF7BD
:1022100019FFFBE7D00800200044004000B587B05C
:10222000002302930393049305930268114B9A428F
:1022300002D007B05DF804FB03F5E633DA6942F437
:102240000032DA61DA6902F400320092009A9A6987
:1022500042F004029A619B6903F004030193019B1D
:102260000C23029302230393059302A9024800F072
:10227000C7F8DEE7004400400008014010B50446FE
:102280000E4B1A784FF47A73B3FBF2F30C4A1068D2
:10229000B0FBF3F000F0A0F868B90F2C01D90120D1
:1022A0000AE0002221464FF0FF3000F077F8054B9E
:1022B0001C60002000E0012010BD00BF4C05002084
:1022C000480500205005002008B5074A136843F070
:1022D00010031360032000F04FF80020FFF7CEFF3B
:1022E000FFF7FEFE002008BD00200240034A1168EF
:1022F000034B1B780B441360704700BF1809002084
:102300004C050020014B1868704700BF18090020D9
:10231000002808DB0901C9B200F1604000F5614006
:1023200080F80013704700F00F000901C9B2014B9B
:102330001954704714ED00E000B500F00700C0F13B
:10234000070CBCF1040F28BF4FF0040C031D062B33
:102350000FD9C31E4FF0FF3E0EFA0CF021EA000128
:1023600099400EFA03FE22EA0E0241EA02005DF8ED
:1023700004FB0023EEE70000074AD36823F4E06380
:102380001B041B0C000200F4E060034343F0BF6336
:1023900043F40033D360704700ED00E010B504460D
:1023A000054BD868C0F30220FFF7C6FF0146204660
:1023B000FFF7AEFF10BD00BF00ED00E0002807DB17
:1023C00000F01F02400901239340024A42F82030E6
:1023D000704700BF00E100E00138B0F1807F0BD210
:1023E0004FF0E0235861054AF02182F823100020C5
:1023F000986107221A6170470120704700ED00E0E4
:1024000070B582B00024A446A1E07E4DAB4214D04A
:102410000CD8A5F58015AB420FD005F57025AB4261
:102420000BD0A5F58015AB4210D106E0764DAB423E
:1024300003D005F58035AB4208D18B68002B50D016
:10244000012B49D04261082400E0CC68BEF1FF0FA7
:1024500049D806464FEA8C0233680F25954023EA97
:10246000050304FA02F2134333604B6813F0805FF4
:102470006BD0664B9A6942F001029A619B6903F046
:1024800001030193019B4FEA9C02951C604B53F89A
:1024900025600CF00305AD000F23AB4026EA0306D0
:1024A0005C4B984226D003F58063984200F08C8004
:1024B00003F58063984200F0898003F580639842B9
:1024C00016D0042317E0CC680434BFE7CC68083486
:1024D000BCE7CC680C34B9E702610824B6E70024F5
:1024E000B4E70424B2E7061DACF108029200B3E79A
:1024F000032300E00023AB4033430232444D45F850
:1025000022304B6813F4801F62D0434A936843EA39
:102510000E0393604B6813F4001F5FD03E4AD368EC
:1025200043EA0E03D3604B6813F4003F5CD03A4A91
:10253000536843EA0E0353604B6813F4803F59D04D
:10254000354A136843EA0E0313600CF1010C0B6863
:1025500033FA0CF254D0012202FA0CF203EA020E12
:1025600032EA0303F1D14B68122B3FF64EAF122B28
:102570003FF66CAF01A555F823F000BF3B240008DF
:102580004B240008CD240008DF2400084D24000857
:102590004D2400084D2400084D2400084D24000857
:1025A0004D2400084D2400084D2400084D24000847
:1025B0004D2400084D2400084D2400084D24000837
:1025C000C7240008D3240008012394E7022392E7DC
:1025D000114A936823EA0E0393609BE70E4AD3687F
:1025E00023EA0E03D3609EE70B4A536823EA0E03E7
:1025F0005360A1E7084A136823EA0E031360A4E7B7
:1026000002B070BD00002210000031100010024026
:102610000000014000080140000401400AB10161CE
:1026200070470904016170477047000008B5054B09
:102630005B69034200D108BD024B5861FFF7F4FF0C
:10264000F9E700BF0004014003685A6912F4806F83
:1026500001D1002070476FF480625A610023036348
:10266000202280F83D2080F83E30026C42F00402C7
:10267000026480F83C30012070472DE9F0410646A5
:102680000C46174698463BE0FFF73CFE069BC01AF7
:10269000404502D8B8F1000F32D1012D18D033686F
:1026A0009B6924EA03039BB2B3FA83F35B099F425D
:1026B00026D100233363202286F83D2086F83E3061
:1026C000326C42F02002326486F83C30012027E070
:1026D00033685B6924EA03039BB2B3FA83F35B09B3
:1026E000E5E733685B6924EA030C1FFA8CFCBCFA4B
:1026F0008CFC4FEA5C1C674511D1B8F1FF3FC3D198
:10270000C4F30745012DECD033689B6924EA030C20
:102710001FFA8CFCBCFA8CFC4FEA5C1CEBE7002037
:10272000BDE8F0812DE9F84305460E4690469946EE
:1027300053E01A6842F400721A602B686FF48062EA
:102740005A6100232B63202285F83D2085F83E3016
:102750002A6C42F004022A6485F83C3001204AE0E9
:10276000FFF7D0FDA0EB0900404502D8B8F1000FFB
:1027700033D1012F17D02B689B6926EA03039BB244
:10278000003B18BF012343B300232B63202285F8AD
:102790003D2085F83E302A6C42F020022A6485F8FC
:1027A0003C30012027E02B685B6926EA03039BB2DB
:1027B000003B18BF0123E6E72B689C6926EA040466
:1027C000A4B2003C18BF0124A4B12B685A6912F4CA
:1027D000806FAED1B8F1FF3FC2D1C6F30747012FDA
:1027E000EAD12B685C6926EA0404A4B2003C18BF55
:1027F0000124E9E70020BDE8F88370B504460D46E2
:10280000164623685B6913F0800F21D12046FFF73D
:102810001BFFF8B9B5F1FF3FF3D0FFF773FD801B45
:10282000A84201D8002DECD123685B6913F0800F1A
:10283000E7D100232363202284F83D2084F83E3032
:10284000226C42F02002226484F83C30012000E037
:10285000002070BD0120FCE72DE9F04784B004465C
:102860000D46164699460C9FDDF8348002681368C1
:1028700043F4806313600368196841F48071196040
:10288000CDF800803B4600224FF00111FFF7F5FE26
:1028900070B95FFA85FA236805F0FE051D614346AD
:1028A0003A4641492046FFF73DFF68B1012008E064
:1028B00023681B6813F4807F02D04FF400732364F5
:1028C000032004B0BDE8F0870023039323685A690E
:1028D00003929B690393039B424639462046FFF7C8
:1028E0008CFF80B9B9F1010F18D12368F6B21E61CF
:1028F000424639462046FFF780FF68B3236C042B1D
:1029000024D00120DDE7236C042B01D00120D8E77F
:102910002268136843F400731360F7E72368320AF0
:102920001A61424639462046FFF767FF18B9236807
:10293000F6B21E61DCE7236C042B01D00120C0E756
:102940002268136843F400731360F7E72268136882
:1029500043F400731360D4E72268136843F4807370
:102960001360CDF800803B4600224FF00111204655
:10297000FFF783FE68B922684AF0010313614346FA
:102980003A4609492046FFF7CDFE002899D001209C
:1029900097E723681B6813F4807F02D04FF400731D
:1029A000236403208DE700BF0200010070B50446D8
:1029B0000D46164614E06FF010025A61002323639F
:1029C000202284F83D2084F83E30226C226484F872
:1029D0003C30012025E023685B6913F0400F10D0E4
:1029E0002368586910F0400F1AD1586910F0100F81
:1029F000E1D1FFF787FC801BA842ECD8002DEFD176
:102A0000E9E700232363202284F83D2084F83E3048
:102A1000226C42F02002226484F83C30012000E065
:102A2000002070BD002800F0CC8070B5044690F8FE
:102A30003D30002B77D0242384F83D302268136882
:102A400023F0010313602268136843F4004313600A
:102A50002268136823F40043136000F073FD62687A
:102A60005A4B9A4264D85A4B98428CBF0023012398
:102A7000002B40F0A8805749A1FB00318B0C256842
:102A80006A6822F03F0242EA91426A6021680A6A5B
:102A900022F03F0266684D4DAE424FD801331343DA
:102AA0000B622168CA6922F44F4222F0FF02656876
:102AB000464B9D424CD8431E6D00B3FBF5F30133EA
:102AC00040F6FC70034278D0C3F30B031A43CA618B
:102AD00021680B6823F0C003E269206A02431343B4
:102AE0000B6021688B6823F4034323F0FF03226902
:102AF000E068024313438B602168CB6823F0FF0337
:102B00006269A06902431343CB602268136843F0F3
:102B10000103136000202064202384F83D302063EB
:102B200084F83E0070BD80F83C30FFF73DFA82E744
:102B3000294B98428CBF0023012399E74FF49675E7
:102B400005FB03F3254DA5FB03539B090133A6E7C2
:102B5000A668BEB9431E05EB450CB3FBFCF301337D
:102B6000C3F30B03B3FA83F35B0943BBC6B9431E3C
:102B700005EB4505B3FBF5F30133C3F30B0343F456
:102B80000043A3E7431E05EB850C0CEB8C0CB3FB59
:102B9000FCF30133C3F30B03B3FA83F35B09E4E7FC
:102BA000431E05EB850505EB8505B3FBF5F3013306
:102BB000C3F30B0343F4404388E7042386E7012370
:102BC00084E7012070470120ACE700BFA086010028
:102BD0007F841E0083DE1B43FF083D00D34D62103F
:102BE0002DE9F04389B004460F4690469946129E5F
:102BF00000230793FFF786FB054694F83D00C0B21B
:102C0000202804D00227384609B0BDE8F08300959B
:102C10001923012281492046FFF72FFD002840F0AB
:102C20007C8194F83C30012B00F07981012384F8F9
:102C30003C3023681A6812F0010F03D11A6842F081
:102C400001021A602268136823F4006313602223D0
:102C500084F83D30402384F83E3000232364109BE9
:102C60006362BDF844306385638D23856C4BE362FA
:102C7000019500964B46424639462046FFF7ECFD4B
:102C80000746002840F04D81238D5BB903932368EC
:102C90005A6903929A690392039A1A6842F400727D
:102CA0001A60F2E0012B0FD0022B21D022681368AA
:102CB00043F4806313600023069323685A690692E5
:102CC0009B690693069BE0E02268136823F4806307
:102CD000136072B60023049323685A6904929A69B8
:102CE0000492049A1A6842F400721A6062B6CCE048
:102CF0002268136843F40063136072B600230593DF
:102D000023685A6905929A690592059A1A6822F40D
:102D100080621A6062B6B8E02A4631462046FFF764
:102D200045FE002840F0FF8023681A69636A1A7024
:102D3000636A01336362238D013B2385638D9BB2FC
:102D4000013B9BB26385A0E00095334600223549E4
:102D50002046FFF792FC002840F0E98022681368C3
:102D600023F48063136072B623681A69636A1A7069
:102D7000636A01336362238D013B2385638D9BB2BC
:102D8000013B9BB26385284B1B68DB08274AA2FBEB
:102D900003231B0A03EB8303C3EBC3030793079BC4
:102DA000013B0793079B002B28D023685A6912F038
:102DB000040FF4D01A6842F400721A6023681A698A
:102DC000636A1A70636A01336362238D013B238552
:102DD000638D9BB2013B9BB2638562B623681A691F
:102DE000636A1A70636A01336362238D013B238532
:102DF000638D9BB2013B9BB2638546E02363202237
:102E000084F83D2084F83E30226C42F02002226497
:102E100062B684F83C300127F5E600BF02001000DE
:102E20000000FFFF040001004805002089B5F814E8
:102E30002A4631462046FFF7B9FD002879D123689C
:102E40001A69636A1A70636A01336362228D013AF8
:102E500092B22285638D9BB2013B9BB2638523684E
:102E6000596911F0040F10D0032A48D023681A6959
:102E7000636A1A70636A01336362238D013B2385A1
:102E8000638D9BB2013B9BB26385238D002B3BD0AE
:102E9000032BCDD8012B3FF43FAF022B7FF454AF6F
:102EA00000953346002224492046FFF7E6FB002820
:102EB0003BD172B62268136843F400731360236831
:102EC0001A69636A1A70636A01336362238D013B76
:102ED0002385638D9BB2013B9BB2638562B62368F9
:102EE0001A69636A1A70636A01336362238D013B56
:102EF0002385638D9BB2013B9BB26385C5E71A684E
:102F000022F480621A60B1E7202384F83D30002368
:102F100084F83E3084F83C3075E6022773E60227D9
:102F200071E601276FE601276DE601276BE60127B1
:102F300069E6012767E600BF0400010082B0084B84
:102F40001B68084AA2FB03235B0A00FB03F30193FF
:102F500000BF019B5A1E0192002BF9D102B07047AD
:102F600048050020D34D6210002800F0F18170B5B3
:102F700082B00446036813F0010F2CD0994B5B68B4
:102F800003F00C03042B1DD0964B5B6803F00C037D
:102F9000082B12D06368B3F5803F41D0002B55D188
:102FA00003F1804303F504331A6822F480321A6077
:102FB0001A6822F480221A6037E08A4B5B6813F4A7
:102FC000803FE7D0874B1B6813F4003F03D0636852
:102FD000002B00F0BF81236813F0020F75D0814BE6
:102FE0005B6813F00C0F5FD07E4B5B6803F00C0343
:102FF000082B54D02369002B00F08A807A4B0122E1
:103000001A60FFF77FF90546764B1B6813F0020F35
:1030100075D1FFF777F9401B0228F5D903209EE10F
:10302000704A136843F480331360636843B3FFF757
:1030300069F905466B4B1B6813F4003FCBD1FFF7D2
:1030400061F9401B6428F5D9032088E1B3F5A02F6E
:1030500009D0644B1A6822F480321A601A6822F48C
:1030600080221A60E1E703F18043A3F53C331A683C
:1030700042F480221A601A6842F480321A60D4E75F
:10308000FFF740F90546574B1B6813F4003FA2D0E9
:10309000FFF738F9401B6428F5D903205FE1514B55
:1030A0005B6813F4803FA5D14E4B1B6813F0020FF1
:1030B00003D02369012B40F04F814A4A136823F063
:1030C000F803616943EAC1031360236813F0080F32
:1030D00033D0A369002B5CD0434B0122C3F880247A
:1030E000FFF710F905463F4B5B6A13F0020F21D141
:1030F000FFF708F9401B0228F5D903202FE1394AD0
:10310000136823F0F803616943EAC1031360DCE745
:10311000354B00221A60FFF7F5F80546314B1B6866
:1031200013F0020FD1D0FFF7EDF8401B0228F5D9BC
:10313000032014E10120FFF701FF236813F0040FBF
:1031400000F09680274BDB6913F0805F34D1254B6C
:10315000DA6942F08052DA61DB6903F0805301934F
:10316000019B0125214B1B6813F4807F26D0E36867
:10317000012B3DD0002B53D103F1804303F50433E1
:103180001A6A22F001021A621A6A22F004021A6212
:1031900033E0154B0022C3F88024FFF7B3F805464F
:1031A000104B5B6A13F0020FC7D0FFF7ABF8401B60
:1031B0000228F5D90320D2E00025D3E70B4A136893
:1031C00043F480731360FFF79DF80646074B1B68B6
:1031D00013F4807FCBD1FFF795F8801B6428F5D9D5
:1031E0000320BCE00010024000004242007000409A
:1031F0005F4A136A43F001031362E36833B3FFF7D6
:1032000081F806465A4B1B6A13F0020F2FD1FFF7C5
:1032100079F8801B41F288339842F3D903209EE06D
:10322000052B09D0524B1A6A22F001021A621A6A5F
:1032300022F004021A62E0E74D4B1A6A42F00402DF
:103240001A621A6A42F001021A62D6E7FFF75AF8C8
:103250000646474B1B6A13F0020F08D0FFF752F8DF
:10326000801B41F288339842F3D9032077E0E5B917
:10327000E369002B72D03E4A526802F00C02082A21
:1032800056D0022B17D03B4B00221A66FFF73AF8B4
:103290000446374B1B6813F0007F47D0FFF732F826
:1032A000001B0228F5D9032059E0314AD36923F0E5
:1032B0008053D361DCE72F4B00221A66FFF722F818
:1032C00005462B4B1B6813F0007F06D0FFF71AF85A
:1032D000401B0228F5D9032041E0236AB3F5803F63
:1032E0001AD023494B6823F47413226A606A02439C
:1032F00013434B601F4B01221A66FFF703F8044685
:103300001B4B1B6813F0007F0ED1FEF7FBFF001B69
:103310000228F5D9032022E0154A536823F400332C
:10332000A1680B435360DCE7002018E0002016E0A2
:10333000012B16D00E4B5B6803F48031226A914258
:1033400011D103F47013626A93420ED1002006E09B
:1033500001207047012002E0012000E0002002B0BF
:1033600070BD0120FBE70120F9E70120F7E700BF6E
:1033700000100240000042420F4B5B6803F00C0259
:10338000082A01D00D487047C3F383420C49885C7A
:1033900013F4803F0BD0084B5B68C3F34043094AEA
:1033A000D35C064A02FB00F0B0FBF3F07047064B1B
:1033B00003FB00F0704700BF0010024000127A00CB
:1033C000543700085037000800093D00002800F07D
:1033D000A08070B50D460446524B1B6803F00703EE
:1033E0008B420BD24F4A136823F007030B43136041
:1033F000136803F007038B4240F08D80236813F0BD
:10340000020F17D013F0040F04D0474A536843F457
:10341000E0635360236813F0080F04D0424A5368F6
:1034200043F460535360404A536823F0F003A168AB
:103430000B435360236813F0010F31D06368012BF5
:1034400020D0022B25D0384A126812F0020F64D027
:1034500035494A6822F0030213434B60FEF752FFDE
:103460000646314B5B6803F00C036268B3EB820FD6
:1034700016D0FEF747FF801B41F288339842F0D9FF
:10348000032045E0284A126812F4003FE0D10120F1
:103490003EE0254A126812F0007FD9D1012037E0C2
:1034A000204B1B6803F00703AB420AD91D4A13687F
:1034B00023F007032B431360136803F00703AB42A9
:1034C0002DD1236813F0040F06D0174A536823F454
:1034D000E063E1680B435360236813F0080F07D0E3
:1034E000114A536823F46053216943EAC1035360CE
:1034F000FFF742FF0C4B5B68C3F303130B4AD35C2B
:10350000D8400B4B18600B4B1868FEF7B7FE002035
:1035100070BD012070470120FAE70120F8E7012083
:10352000F6E700BF002002400010024040370008CC
:103530004805002050050020014B1868704700BF67
:103540004805002008B5FFF7F7FF044B5B68C3F39D
:103550000223034AD35CD84008BD00BF00100240DC
:103560003837000808B5FFF7E7FF044B5B68C3F383
:10357000C223034AD35CD84008BD00BF00100240FC
:103580003837000810B504460268136923F4405325
:10359000C1680B43136183680269134342691A438C
:1035A0000168CB6823F4B05323F00C031343CB60C2
:1035B0000268536923F4407381690B4353610268C5
:1035C000134B9A4220D0FFF7BDFF024602EB820266
:1035D00002EB820263689B00B2FBF3F20D48A0FB92
:1035E00002314909642303FB11231B013233A0FB81
:1035F00003035B0903F0F00202EB011203F00F0377
:10360000216813448B6010BDFFF7ACFF0246DDE775
:10361000003801401F85EB5160B310B5044690F8A7
:10362000413013B3242384F841302268D36823F453
:103630000053D3602046FFF7A5FF2268136923F4E7
:10364000904313612268536923F02A03536122686F
:10365000D36843F40053D36000206064202384F8CF
:10366000413084F84230606310BD80F84030FEF78E
:10367000D5FDD7E701207047FEF7B4FD0B480C4994
:103680000C4A002302E0D458C4500433C4188C42BE
:10369000F9D3094A094C002301E013600432A24225
:1036A000FBD3FCF7E9FDFEF701FD704700000020A9
:1036B0005405002078370008540500201C0900201C
:1036C000FEE70000024B13B10248FDF7C9B870478E
:1036D000000000006D080008F8B500BFF8BC08BC89
:1036E0009E467047F8B500BFF8BC08BC9E467047C0
:1036F0004D50552D3630353020636F6E6E656374D6
:103700006564207375636365737366756C6C792E7D
:103710000D0000004661696C656420746F20636F62
:103720006E6E65637420746F204D50552D363035A4
:10373000302E0D000A00000000000000010203040A
:103740000000000000000000010203040607080951
:103750000102000002030405060708090A0B0C0D0C
:043760000E0F101028
:083764005CD1FF7F01000000B1
:08376C00C5360008A9010008A0
:0437740081010008C7
:103778000800002000000000000000007005002084
:10378800D8050020400600200000000000000000CE
:103798000000000000000000000000000000000021
:1037A8000000000000000000000000000000000011
:1037B8000000000000000000000000000000000001
:1037C80000000000000000000000000000000000F1
:1037D80000000000000000000000000000000000E1
:1037E80000000000000000000000000000000000D1
:1037F80000000000000000000000000000000000C1
:1038080000000000000000000000000000000000B0
:1038180001000000000000000E33CDAB34126DE64D
:10382800ECDE05000B0000000000000000000000B6
:103838000000000000000000000000000000000080
:103848000000000000000000000000000000000070
:103858000000000000000000000000000000000060
:103868000000000000000000000000000000000050
:103878000000000000000000000000000000000040
:103888000000000000000000000000000000000030
:10389800000000000000000000000000030000001D
:1038A800700500200000000000000000000000007B
:1038B800380100203801002040010020400100208C
:1038C800480100204801002050010020500100203C
:1038D80058010020580100206001002060010020EC
:1038E800680100206801002070010020700100209C
:1038F800780100207801002080010020800100204C
:1039080088010020880100209001002090010020FB
:103918009801002098010020A0010020A0010020AB
:10392800A8010020A8010020B0010020B00100205B
:10393800B8010020B8010020C0010020C00100200B
:10394800C8010020C8010020D0010020D0010020BB
:10395800D8010020D8010020E0010020E00100206B
:10396800E8010020E8010020F0010020F00100201B
:10397800F8010020F80100200002002000020020C9
:103988000802002008020020100200201002002077
:103998001802002018020020200200202002002027
:1039A80028020020280200203002002030020020D7
:1039B8003802002038020020400200204002002087
:1039C8004802002048020020500200205002002037
:1039D80058020020580200206002002060020020E7
:1039E8006802002068020020700200207002002097
:1039F8007802002078020020800200208002002047
:103A080088020020880200209002002090020020F6
:103A18009802002098020020A0020020A0020020A6
:103A2800A8020020A8020020B0020020B002002056
:103A3800B8020020B8020020C0020020C002002006
:103A4800C8020020C8020020D0020020D0020020B6
:103A5800D8020020D8020020E0020020E002002066
:103A6800E8020020E8020020F0020020F002002016
:103A7800F8020020F80200200003002000030020C4
:103A88000803002008030020100300201003002072
:103A98001803002018030020200300202003002022
:103AA80028030020280300203003002030030020D2
:103AB8003803002038030020400300204003002082
:103AC8004803002048030020500300205003002032
:103AD80058030020580300206003002060030020E2
:103AE8006803002068030020700300207003002092
:103AF8007803002078030020800300208003002042
:103B080088030020880300209003002090030020F1
:103B18009803002098030020A0030020A0030020A1
:103B2800A8030020A8030020B0030020B003002051
:103B3800B8030020B8030020C0030020C003002001
:103B4800C8030020C8030020D0030020D0030020B1
:103B5800D8030020D8030020E0030020E003002061
:103B6800E8030020E8030020F0030020F003002011
:103B7800F8030020F80300200004002000040020BF
:103B8800080400200804002010040020100400206D
:103B9800180400201804002020040020200400201D
:103BA80028040020280400203004002030040020CD
:103BB800380400203804002040040020400400207D
:103BC800480400204804002050040020500400202D
:103BD80058040020580400206004002060040020DD
:103BE800680400206804002070040020700400208D
:103BF800780400207804002080040020800400203D
:103C080088040020880400209004002090040020EC
:103C18009804002098040020A0040020A00400209C
:103C2800A8040020A8040020B0040020B00400204C
:103C3800B8040020B8040020C0040020C0040020FC
:103C4800C8040020C8040020D0040020D0040020AC
:103C5800D8040020D8040020E0040020E00400205C
:103C6800E8040020E8040020F0040020F00400200C
:103C7800F8040020F80400200005002000050020BA
:103C88000805002008050020100500201005002068
:103C98001805002018050020200500202005002018
:103CA80028050020280500203005002030050020C8
:103CB800FFFFFFFF0000020000127A000100000071
:043CC80010000000E8
:040000050800367940
:00000001FF
