:020000040800F2
:1000000000500020951F0008690600086B060008D4
:100010006D0600086F060008710600080000000069
:10002000000000000000000000000000730600084F
:100030007506000800000000770600087906000831
:10004000DD1F0008DD1F0008DD1F0008DD1F0008A0
:10005000DD1F0008DD1F0008DD1F0008DD1F000890
:10006000DD1F0008DD1F0008DD1F0008DD1F000880
:10007000DD1F0008DD1F0008DD1F0008DD1F000870
:10008000DD1F0008DD1F0008DD1F0008DD1F000860
:10009000DD1F0008DD1F0008DD1F0008DD1F000850
:1000A000DD1F0008DD1F0008DD1F0008DD1F000840
:1000B000DD1F0008DD1F0008DD1F0008DD1F000830
:1000C000DD1F0008DD1F0008DD1F0008DD1F000820
:1000D000DD1F0008DD1F0008DD1F0008DD1F000810
:1000E00081060008DD1F0008DD1F00080000000079
:1000F0000000000000000000000000000000000000
:0C01000000000000000000005FF808F1A3
:10010C000348044B834202D0034B03B1184770479A
:10011C000C0000200C000020000000000548064BDD
:10012C001B1AD90F01EBA301491002D0034B03B1E9
:10013C00184770470C0000200C0000200000000045
:10014C0010B5064C237843B9FFF7DAFF044B13B113
:10015C000448AFF300800123237010BD0C00002075
:10016C0000000000F41F000808B5044B1BB1044943
:10017C000448AFF30080BDE80840CFE70000000062
:10018C0010000020F41F0008830730B547D0541E20
:10019C00002A3ED0CAB2034601E0013C39D303F831
:1001AC00012B9D07F9D1032C2CD9CDB205EB0525DC
:1001BC000F2C05EB054535D9A4F1100222F00F0CDC
:1001CC0003F1100EE6444FEA121C1A46C2E9005520
:1001DC00C2E9025510327245F8D10CF1010214F04B
:1001EC000C0F03EB021204F00F0C13D0ACF1040350
:1001FC0023F003030433134442F8045B9342FBD112
:10020C000CF003042CB1C9B21C4403F8011BA3422B
:10021C00FBD130BD64461346002CF4D1F9E70346FC
:10022C001446C0E71A46A446E0E700BF70B50F4B72
:10023C000F4DAB42A3EB050607D0B610002455F8C2
:10024C00043B01349847A642F9D801F0CDFE094D84
:10025C00094B5E1BAB424FEAA60606D0002455F8AC
:10026C00043B01349847A642F9D870BD38200008E9
:10027C0038200008382000084020000800230146E0
:10028C001A46184600F014B838B5074D074C2C1B0D
:10029C00A41005D0013C55F8043D9847002CF9D129
:1002AC00BDE8384001F0A6BE4420000840200008FC
:1002BC0070B4164D2C681CB365681F2D23DC38B93F
:1002CC00AB1C0135656044F82310002070BC7047EE
:1002DC0004EB850C0228CCF88820D4F888614FF008
:1002EC00010202FA05F246EA0206C4F88861CCF86B
:1002FC000831E5D1D4F88C311343C4F88C31DFE7E5
:10030C00034C2C60D8E74FF0FF30DFE728000020CB
:10031C002C0000202DE9F04188B0002404940594B1
:10032C0006940794344B9A6942F010029A619A69C8
:10033C0002F010020092009A9A6942F020029A612F
:10034C009A6902F020020192019A9A6942F0040221
:10035C009A619A6902F004020292029A9A6942F036
:10036C0008029A619B6903F008030393039B234DD6
:10037C0022462021284600F0B3FBC023049312230D
:10038C000593012706974FF00308CDF81C8004A9AC
:10039C001B4800F097FA0423049302260596CDF827
:1003AC001C8004A9284600F08DFA082304930594B8
:1003BC00069404A9284600F085FA4FF400530493E0
:1003CC00104B0593069404A90F4800F07BFA2023E8
:1003DC00049305970694079604A9284600F072FA30
:1003EC0022462146282000F03BFA282000F048FA4B
:1003FC0008B0BDE8F08100BF0010024000080140C9
:10040C00000C0140000011100010014008B50B4811
:10041C000B4B03600B4B436000238360C3604FF4B2
:10042C008042026143618361C361036200F0F8FDA5
:10043C0000B908BD00F0A8F8FBE700BFBC01002024
:10044C0000540040A086010010B586B00023029332
:10045C000393049305930268114B9A4201D006B0A2
:10046C0010BD104CA36943F00803A361A36903F00A
:10047C0008030093009BC0230293122303930323CE
:10048C00059302A9084800F01DFAE36943F4001330
:10049C00E361E36903F400130193019BDFE700BF01
:1004AC000054004000100240000C014000B587B021
:1004BC0000238DF817304FF47A73029301230193C4
:1004CC000DF1170200926B22D021034800F086FE3A
:1004DC0007B05DF804FB00BFBC01002000B58BB079
:1004EC0000238DF827304FF47A7302930123019384
:1004FC000DF1270200927522D021214800F020FF37
:10050C0057238DF8103048238DF811304F238DF878
:10051C0012305F238DF8133041228DF814204D22B8
:10052C008DF815208DF8163049238DF817303A23A5
:10053C008DF8183020238DF819309DF827100A09F2
:10054C0001F00F039F2917D830328DF81A20092B90
:10055C0014D830338DF81B300D238DF81C300A2342
:10056C008DF81D304FF0FF330E2204A9054801F021
:10057C00A4FC0BB05DF804FB3732E6E73733E9E750
:10058C00BC0100201002002072B6FEE700B591B04D
:10059C002822002106A8FFF7F7FD00230193029300
:1005AC00039304930593012206924FF4803307932F
:1005BC000A9202220D920E934FF4E0130F9306A8A9
:1005CC0001F082F880B90F230193022102910023DC
:1005DC0003934FF480620492059301A801F0A6FAEC
:1005EC0020B911B05DF804FBFFF7CEFFFFF7CCFF8D
:1005FC0008B500F0B7F8FFF7C9FFFFF78BFE00F066
:10060C0041F8FFF703FFFFF751FFFFF767FF4FF4C8
:10061C00FA7000F0CBF8F8E782B00E4B9A6942F012
:10062C0001029A619A6902F001020092009ADA6959
:10063C0042F08052DA61DB6903F080530193019B35
:10064C00054A536823F0E06343F00073536002B033
:10065C00704700BF0010024000000140FEE7FEE7BB
:10066C00FEE7FEE7FEE770477047704708B500F0FD
:10067C008BF808BD08B54FF4005000F039FA08BDEE
:10068C007047000008B50A480A4B03604FF4E13389
:10069C00436000238360C36003610C224261836169
:1006AC00C36101F0DAFB00B908BDFFF76DFFFBE792
:1006BC00100200200044004000B587B000230293D4
:1006CC000393049305930268114B9A4202D007B02E
:1006DC005DF804FB03F5E633DA6942F40032DA61C3
:1006EC00DA6902F400320092009A9A6942F004022C
:1006FC009A619B6903F004030193019B0C23029301
:10070C0002230393059302A9024800F0DBF8DEE70D
:10071C00004400400008014010B504460E4B1A7806
:10072C004FF47A73B3FBF2F30C4A1068B0FBF3F09E
:10073C0000F0B4F868B90F2C01D901200AE00022AE
:10074C0021464FF0FF3000F08BF8054B1C60002069
:10075C0000E0012010BD00BF0400002000000020BC
:10076C000800002008B5074A136843F01003136013
:10077C00032000F063F80020FFF7CEFFFFF74CFFDB
:10078C00002008BD00200240034A1168034B1B786F
:10079C000B441360704700BF580200200400002077
:1007AC00014B1868704700BF5802002038B504464A
:1007BC00FFF7F6FF0546B4F1FF3F02D0044B1B7860
:1007CC001C44FFF7EDFF401BA042FAD338BD00BF1D
:1007DC0004000020002808DB0901C9B200F16040C8
:1007EC0000F5614080F80013704700F00F0009011C
:1007FC00C9B2014B1954704714ED00E000B500F07C
:10080C000700C0F1070CBCF1040F28BF4FF0040C1B
:10081C00031D062B0FD9C31E4FF0FF3E0EFA0CF032
:10082C0021EA000199400EFA03FE22EA0E0241EA87
:10083C0002005DF804FB0023EEE70000074AD368D2
:10084C0023F4E0631B041B0C000200F4E060034380
:10085C0043F0BF6343F40033D360704700ED00E016
:10086C0010B50446054BD868C0F30220FFF7C6FF4D
:10087C0001462046FFF7AEFF10BD00BF00ED00E0C3
:10088C00002807DB00F01F02400901239340024AB5
:10089C0042F82030704700BF00E100E00138B0F1B1
:1008AC00807F0BD24FF0E0235861054AF02182F88B
:1008BC0023100020986107221A61704701207047AD
:1008CC0000ED00E070B582B00024A446A1E07E4D9E
:1008DC00AB4214D00CD8A5F58015AB420FD005F562
:1008EC007025AB420BD0A5F58015AB4210D106E0BC
:1008FC00764DAB4203D005F58035AB4208D18B6801
:10090C00002B50D0012B49D04261082400E0CC6868
:10091C00BEF1FF0F49D806464FEA8C0233680F250B
:10092C00954023EA050304FA02F2134333604B6843
:10093C0013F0805F6BD0664B9A6942F001029A61AA
:10094C009B6903F001030193019B4FEA9C02951CE8
:10095C00604B53F825600CF00305AD000F23AB4042
:10096C0026EA03065C4B984226D003F58063984236
:10097C0000F08C8003F58063984200F0898003F5C9
:10098C008063984216D0042317E0CC680434BFE788
:10099C00CC680834BCE7CC680C34B9E70261082495
:1009AC00B6E70024B4E70424B2E7061DACF1080254
:1009BC009200B3E7032300E00023AB403343023241
:1009CC00444D45F822304B6813F4801F62D0434AE3
:1009DC00936843EA0E0393604B6813F4001F5FD0D7
:1009EC003E4AD36843EA0E03D3604B6813F4003FCE
:1009FC005CD03A4A536843EA0E0353604B6813F4D5
:100A0C00803F59D0354A136843EA0E0313600CF14A
:100A1C00010C0B6833FA0CF254D0012202FA0CF2DE
:100A2C0003EA020E32EA0303F1D14B68122B3FF6B4
:100A3C004EAF122B3FF66CAF01A555F823F000BF5B
:100A4C000B0900081B0900089D090008AF090008E4
:100A5C001D0900081D0900081D0900081D090008D2
:100A6C001D0900081D0900081D0900081D090008C2
:100A7C001D0900081D0900081D0900081D090008B2
:100A8C001D09000897090008A3090008012394E731
:100A9C00022392E7114A936823EA0E0393609BE7C3
:100AAC000E4AD36823EA0E03D3609EE70B4A5368C1
:100ABC0023EA0E035360A1E7084A136823EA0E03E6
:100ACC001360A4E702B070BD0000221000003110CA
:100ADC0000100240000001400008014000040140E9
:100AEC000AB1016170470904016170477047000049
:100AFC0008B5054B5B69034200D108BD024B586138
:100B0C00FFF7F4FFF9E700BF0004014003685A69DE
:100B1C0012F4806F01D1002070476FF480625A612B
:100B2C0000230363202280F83D2080F83E30026CC5
:100B3C0042F00402026480F83C30012070472DE939
:100B4C00F04106460C46174698463BE0FFF728FE58
:100B5C00069BC01A404502D8B8F1000F32D1012DC6
:100B6C0018D033689B6924EA03039BB2B3FA83F36E
:100B7C005B099F4226D100233363202286F83D2057
:100B8C0086F83E30326C42F02002326486F83C30FB
:100B9C00012027E033685B6924EA03039BB2B3FAB4
:100BAC0083F35B09E5E733685B6924EA030C1FFAFE
:100BBC008CFCBCFA8CFC4FEA5C1C674511D1B8F17B
:100BCC00FF3FC3D1C4F30745012DECD033689B69BB
:100BDC0024EA030C1FFA8CFCBCFA8CFC4FEA5C1C5C
:100BEC00EBE70020BDE8F0812DE9F84305460E4601
:100BFC009046994653E01A6842F400721A602B68CA
:100C0C006FF480625A6100232B63202285F83D200B
:100C1C0085F83E302A6C42F004022A6485F83C3098
:100C2C0001204AE0FFF7BCFDA0EB0900404502D8CB
:100C3C00B8F1000F33D1012F17D02B689B6926EA2E
:100C4C0003039BB2003B18BF012343B300232B6368
:100C5C00202285F83D2085F83E302A6C42F0200297
:100C6C002A6485F83C30012027E02B685B6926EA72
:100C7C0003039BB2003B18BF0123E6E72B689C697A
:100C8C0026EA0404A4B2003C18BF0124A4B12B68CA
:100C9C005A6912F4806FAED1B8F1FF3FC2D1C6F3DE
:100CAC000747012FEAD12B685C6926EA0404A4B239
:100CBC00003C18BF0124E9E70020BDE8F88370B5BB
:100CCC0004460D46164623685B6913F0800F21D14C
:100CDC002046FFF71BFFF8B9B5F1FF3FF3D0FFF744
:100CEC005FFD801BA84201D8002DECD123685B6905
:100CFC0013F0800FE7D100232363202284F83D20DA
:100D0C0084F83E30226C42F02002226484F83C309D
:100D1C00012000E0002070BD0120FCE72DE9F0432C
:100D2C0085B004460D4691461F46DDF830800D9E79
:100D3C000368196841F480711960009643460022DB
:100D4C004FF00111FFF7FBFE60B9236805F0FE05BB
:100D5C001D613346424626492046FFF745FF68B1E0
:100D6C00012008E023681B6813F4807F02D04FF445
:100D7C0000732364032005B0BDE8F08300230393C4
:100D8C0023685A6903929B690393039B324641463D
:100D9C002046FFF794FF30B9012F0FD123685FFA7B
:100DAC0089F61E61E7E7236C042B01D00120E2E7F2
:100DBC002268136843F400731360F7E723684FEA63
:100DCC0019221A61324641462046FFF778FF20B9B6
:100DDC0023685FFA89F61E61CDE7236C042B01D0E2
:100DEC000120C8E72268136843F400731360F7E727
:100DFC00020001002DE9F04784B004460D4616466A
:100E0C0099460C9FDDF834800268136843F48063C4
:100E1C0013600368196841F480711960CDF8008083
:100E2C003B4600224FF00111FFF789FE70B95FFAC3
:100E3C0085FA236805F0FE051D6143463A46414993
:100E4C002046FFF7D1FE68B1012008E023681B683B
:100E5C0013F4807F02D04FF400732364032004B09A
:100E6C00BDE8F0870023039323685A6903929B69BA
:100E7C000393039B424639462046FFF720FF80B977
:100E8C00B9F1010F18D12368F6B21E6142463946FA
:100E9C002046FFF714FF68B3236C042B24D00120E9
:100EAC00DDE7236C042B01D00120D8E722681368FE
:100EBC0043F400731360F7E72368320A1A61424661
:100ECC0039462046FFF7FBFE18B92368F6B21E61BF
:100EDC00DCE7236C042B01D00120C0E722681368E7
:100EEC0043F400731360F7E72268136843F400734C
:100EFC001360D4E72268136843F480731360CDF851
:100F0C0000803B4600224FF001112046FFF717FEF0
:100F1C0068B922684AF00103136143463A4609490D
:100F2C002046FFF761FE002899D0012097E723683F
:100F3C001B6813F4807F02D04FF4007323640320EA
:100F4C008DE700BF0200010070B504460D46164641
:100F5C0023685B6913F0040F21D12046FFF7D6FDFF
:100F6C00F8B9B5F1FF3FF3D0FFF71AFC801BA8428C
:100F7C0001D8002DECD123685B6913F0040FE7D185
:100F8C0000232363202284F83D2084F83E30226C19
:100F9C0042F02002226484F83C30012000E0002062
:100FAC0070BD0120FCE770B504460D46164614E0F2
:100FBC006FF010025A6100232363202284F83D2035
:100FCC0084F83E30226C226484F83C30012025E009
:100FDC0023685B6913F0400F10D02368586910F038
:100FEC00400F1AD1586910F0100FE1D1FFF7D8FB60
:100FFC00801BA842ECD8002DEFD1E9E70023236336
:10100C00202284F83D2084F83E30226C42F02002ED
:10101C00226484F83C30012000E0002070BD000008
:10102C00002800F0CC8070B5044690F83D30002BC1
:10103C0077D0242384F83D302268136823F0010311
:10104C0013602268136843F400431360226813682A
:10105C0023F40043136000F025FE62685A4B9A4259
:10106C0064D85A4B98428CBF00230123002B40F0CC
:10107C00A8805749A1FB00318B0C25686A6822F0C7
:10108C003F0242EA91426A6021680A6A22F03F02FA
:10109C0066684D4DAE424FD8013313430B62216845
:1010AC00CA6922F44F4222F0FF026568464B9D420A
:1010BC004CD8431E6D00B3FBF5F3013340F6FC70C6
:1010CC00034278D0C3F30B031A43CA6121680B683F
:1010DC0023F0C003E269206A024313430B602168CA
:1010EC008B6823F4034323F0FF032269E068024377
:1010FC0013438B602168CB6823F0FF036269A069FE
:10110C0002431343CB602268136843F0010313605E
:10111C0000202064202384F83D30206384F83E00B6
:10112C0070BD80F83C30FFF78FF982E7294B98426D
:10113C008CBF0023012399E74FF4967505FB03F34D
:10114C00254DA5FB03539B090133A6E7A668BEB941
:10115C00431E05EB450CB3FBFCF30133C3F30B034C
:10116C00B3FA83F35B0943BBC6B9431E05EB4505D4
:10117C00B3FBF5F30133C3F30B0343F40043A3E7D1
:10118C00431E05EB850C0CEB8C0CB3FBFCF3013311
:10119C00C3F30B03B3FA83F35B09E4E7431E05EBDC
:1011AC00850505EB8505B3FBF5F30133C3F30B03A1
:1011BC0043F4404388E7042386E7012384E70120B6
:1011CC0070470120ACE700BFA08601007F841E00A1
:1011DC0083DE1B43FF083D00D34D62102DE9F04325
:1011EC0083B004460F46904699460C9EFFF7D8FAFA
:1011FC00054694F83D00C0B2202803D0022003B06D
:10120C00BDE8F0830095192301224B492046FFF7D6
:10121C0096FC002840F0898094F83C30012B00F0BB
:10122C008680012384F83C3023681A6812F0010F81
:10123C0003D11A6842F001021A602268136823F481
:10124C0000631360212384F83D30402384F83E3042
:10125C00002323640A9B6362BDF82C306385638D85
:10126C002385364BE362019500964B464246394640
:10127C002046FFF753FD00285BD1238D002B35D082
:10128C002A4631462046FFF71AFD20BB626A2368C6
:10129C0012781A61626A531C6362218D013989B21A
:1012AC002185638D9BB2013B9BB263852368586992
:1012BC0010F0040FE1D00029DFD052781A61636A74
:1012CC0001336362238D013B2385638D9BB2013B0C
:1012DC009BB26385D1E7236C042B01D001208EE7F0
:1012EC002268136843F400731360F7E72A4631460B
:1012FC002046FFF729FE50B1236C042B01D00120AE
:10130C007DE72268136843F400731360F7E72268E3
:10131C00136843F400731360202384F83D300023DA
:10132C0084F83E3084F83C3069E7022067E70220FD
:10133C0065E7012063E700BF020010000000FFFF1B
:10134C002DE9F04389B004460F4690469946129E0B
:10135C0000230793FFF724FA054694F83D00C0B22A
:10136C00202804D00227384609B0BDE8F083009548
:10137C001923012281492046FFF7E1FB002840F0A8
:10138C007C8194F83C30012B00F07981012384F8A6
:10139C003C3023681A6812F0010F03D11A6842F02E
:1013AC0001021A602268136823F40063136022237D
:1013BC0084F83D30402384F83E3000232364109B96
:1013CC006362BDF844306385638D23856C4BE362A7
:1013DC00019500964B46424639462046FFF70AFDDA
:1013EC000746002840F04D81238D5BB90393236899
:1013FC005A6903929A690392039A1A6842F400722A
:10140C001A60F2E0012B0FD0022B21D02268136856
:10141C0043F4806313600023069323685A69069291
:10142C009B690693069BE0E02268136823F48063B3
:10143C00136072B60023049323685A6904929A6964
:10144C000492049A1A6842F400721A6062B6CCE0F4
:10145C002268136843F40063136072B6002305938B
:10146C0023685A6905929A690592059A1A6822F4BA
:10147C0080621A6062B6B8E02A4631462046FFF711
:10148C0092FD002840F0FF8023681A69636A1A7085
:10149C00636A01336362238D013B2385638D9BB2A9
:1014AC00013B9BB26385A0E0009533460022354991
:1014BC002046FFF744FB002840F0E98022681368BF
:1014CC0023F48063136072B623681A69636A1A7016
:1014DC00636A01336362238D013B2385638D9BB269
:1014EC00013B9BB26385284B1B68DB08274AA2FB98
:1014FC0003231B0A03EB8303C3EBC3030793079B71
:10150C00013B0793079B002B28D023685A6912F0E4
:10151C00040FF4D01A6842F400721A6023681A6936
:10152C00636A1A70636A01336362238D013B2385FE
:10153C00638D9BB2013B9BB2638562B623681A69CB
:10154C00636A1A70636A01336362238D013B2385DE
:10155C00638D9BB2013B9BB2638546E023632022E3
:10156C0084F83D2084F83E30226C42F02002226444
:10157C0062B684F83C300127F5E600BF020010008B
:10158C000000FFFF040001000000002089B5F814E2
:10159C002A4631462046FFF706FD002879D12368FC
:1015AC001A69636A1A70636A01336362228D013AA5
:1015BC0092B22285638D9BB2013B9BB263852368FB
:1015CC00596911F0040F10D0032A48D023681A6906
:1015DC00636A1A70636A01336362238D013B23854E
:1015EC00638D9BB2013B9BB26385238D002B3BD05B
:1015FC00032BCDD8012B3FF43FAF022B7FF454AF1C
:10160C0000953346002224492046FFF798FA00281B
:10161C003BD172B62268136843F4007313602368DD
:10162C001A69636A1A70636A01336362238D013B22
:10163C002385638D9BB2013B9BB2638562B62368A5
:10164C001A69636A1A70636A01336362238D013B02
:10165C002385638D9BB2013B9BB26385C5E71A68FA
:10166C0022F480621A60B1E7202384F83D30002315
:10167C0084F83E3084F83C3075E6022773E6022786
:10168C0071E601276FE601276DE601276BE601275E
:10169C0069E6012767E600BF0400010082B0084B31
:1016AC001B68084AA2FB03235B0A00FB03F30193AC
:1016BC0000BF019B5A1E0192002BF9D102B070475A
:1016CC0000000020D34D6210002800F0F18170B5AD
:1016DC0082B00446036813F0010F2CD0994B5B6861
:1016EC0003F00C03042B1DD0964B5B6803F00C032A
:1016FC00082B12D06368B3F5803F41D0002B55D135
:10170C0003F1804303F504331A6822F480321A6023
:10171C001A6822F480221A6037E08A4B5B6813F453
:10172C00803FE7D0874B1B6813F4003F03D06368FE
:10173C00002B00F0BF81236813F0020F75D0814B92
:10174C005B6813F00C0F5FD07E4B5B6803F00C03EF
:10175C00082B54D02369002B00F08A807A4B01228D
:10176C001A60FFF71DF80546764B1B6813F0020F45
:10177C0075D1FFF715F8401B0228F5D903209EE11F
:10178C00704A136843F480331360636843B3FFF704
:10179C0007F805466B4B1B6813F4003FCBD1FEF7E3
:1017AC00FFFF401B6428F5D9032088E1B3F5A02F77
:1017BC0009D0644B1A6822F480321A601A6822F439
:1017CC0080221A60E1E703F18043A3F53C331A68E9
:1017DC0042F480221A601A6842F480321A60D4E70C
:1017EC00FEF7DEFF0546574B1B6813F4003FA2D0F3
:1017FC00FEF7D6FF401B6428F5D903205FE1514B5F
:10180C005B6813F4803FA5D14E4B1B6813F0020F9D
:10181C0003D02369012B40F04F814A4A136823F00F
:10182C00F803616943EAC1031360236813F0080FDE
:10183C0033D0A369002B5CD0434B0122C3F8802426
:10184C00FEF7AEFF05463F4B5B6A13F0020F21D14A
:10185C00FEF7A6FF401B0228F5D903202FE1394AD9
:10186C00136823F0F803616943EAC1031360DCE7F2
:10187C00354B00221A60FEF793FF0546314B1B686F
:10188C0013F0020FD1D0FEF78BFF401B0228F5D9C5
:10189C00032014E10120FFF701FF236813F0040F6C
:1018AC0000F09680274BDB6913F0805F34D1254B19
:1018BC00DA6942F08052DA61DB6903F080530193FC
:1018CC00019B0125214B1B6813F4807F26D0E36814
:1018DC00012B3DD0002B53D103F1804303F504338E
:1018EC001A6A22F001021A621A6A22F004021A62BF
:1018FC0033E0154B0022C3F88024FEF751FF054658
:10190C00104B5B6A13F0020FC7D0FEF749FF401B68
:10191C000228F5D90320D2E00025D3E70B4A13683F
:10192C0043F480731360FEF73BFF0646074B1B68BE
:10193C0013F4807FCBD1FEF733FF801B6428F5D9DD
:10194C000320BCE000100240000042420070004046
:10195C005F4A136A43F001031362E36833B3FEF783
:10196C001FFF06465A4B1B6A13F0020F2FD1FEF7CE
:10197C0017FF801B41F288339842F3D903209EE075
:10198C00052B09D0524B1A6A22F001021A621A6A0C
:10199C0022F004021A62E0E74D4B1A6A42F004028C
:1019AC001A621A6A42F001021A62D6E7FEF7F8FED2
:1019BC000646474B1B6A13F0020F08D0FEF7F0FEE9
:1019CC00801B41F288339842F3D9032077E0E5B9C4
:1019DC00E369002B72D03E4A526802F00C02082ACE
:1019EC0056D0022B17D03B4B00221A66FEF7D8FEBE
:1019FC000446374B1B6813F0007F47D0FEF7D0FE30
:101A0C00001B0228F5D9032059E0314AD36923F091
:101A1C008053D361DCE72F4B00221A66FEF7C0FE21
:101A2C0005462B4B1B6813F0007F06D0FEF7B8FE63
:101A3C00401B0228F5D9032041E0236AB3F5803F0F
:101A4C001AD023494B6823F47413226A606A024348
:101A5C0013434B601F4B01221A66FEF7A1FE04468E
:101A6C001B4B1B6813F0007F0ED1FEF799FE001B79
:101A7C000228F5D9032022E0154A536823F40033D9
:101A8C00A1680B435360DCE7002018E0002016E04F
:101A9C00012B16D00E4B5B6803F48031226A914205
:101AAC0011D103F47013626A93420ED1002006E048
:101ABC0001207047012002E0012000E0002002B06C
:101ACC0070BD0120FBE70120F9E70120F7E700BF1B
:101ADC0000100240000042420F4B5B6803F00C0206
:101AEC00082A01D00D487047C3F383420C49885C27
:101AFC0013F4803F0BD0084B5B68C3F34043094A97
:101B0C00D35C064A02FB00F0B0FBF3F07047064BC7
:101B1C0003FB00F0704700BF0010024000127A0077
:101B2C00282000082420000800093D00002800F0AF
:101B3C00A08070B50D460446524B1B6803F007039A
:101B4C008B420BD24F4A136823F007030B431360ED
:101B5C00136803F007038B4240F08D80236813F069
:101B6C00020F17D013F0040F04D0474A536843F404
:101B7C00E0635360236813F0080F04D0424A5368A3
:101B8C0043F460535360404A536823F0F003A16858
:101B9C000B435360236813F0010F31D06368012BA2
:101BAC0020D0022B25D0384A126812F0020F64D0D4
:101BBC0035494A6822F0030213434B60FEF7F0FDEF
:101BCC000646314B5B6803F00C036268B3EB820F83
:101BDC0016D0FEF7E5FD801B41F288339842F0D910
:101BEC00032045E0284A126812F4003FE0D101209E
:101BFC003EE0254A126812F0007FD9D1012037E06F
:101C0C00204B1B6803F00703AB420AD91D4A13682B
:101C1C0023F007032B431360136803F00703AB4255
:101C2C002DD1236813F0040F06D0174A536823F400
:101C3C00E063E1680B435360236813F0080F07D08F
:101C4C00114A536823F46053216943EAC10353607A
:101C5C00FFF742FF0C4B5B68C3F303130B4AD35CD7
:101C6C00D8400B4B18600B4B1868FEF755FD002045
:101C7C0070BD012070470120FAE70120F8E7012030
:101C8C00F6E700BF002002400010024014200008BC
:101C9C000000002008000020014B1868704700BFAE
:101CAC000000002008B5FFF7F7FF044B5B68C3F397
:101CBC000223034AD35CD84008BD00BF0010024089
:101CCC000C20000808B5FFF7E7FF044B5B68C3F373
:101CDC00C223034AD35CD84008BD00BF00100240A9
:101CEC000C200008026802F10C0353E8003F23F4B7
:101CFC0090730C3242E800310029F3D1026802F1F2
:101D0C00140353E8003F23F00103143242E800317E
:101D1C000029F3D1036B012B05D0202380F842302E
:101D2C00002303637047026802F10C0353E8003F81
:101D3C0023F010030C3242E800310029F3D1ECE718
:101D4C0010B504460268136923F44053C1680B4371
:101D5C00136183680269134342691A430168CB68B3
:101D6C0023F4B05323F00C031343CB600268536984
:101D7C0023F4407381690B4353610268134B9A42FD
:101D8C0020D0FFF78FFF024602EB820202EB8202A9
:101D9C0063689B00B2FBF3F20D48A0FB02314909CA
:101DAC00642303FB11231B013233A0FB03035B09E8
:101DBC0003F0F00202EB011203F00F03216813444D
:101DCC008B6010BDFFF77EFF0246DDE70038014057
:101DDC001F85EB512DE9F04383B005460E4617469F
:101DEC009946DDF828802B681C6836EA04040CBF81
:101DFC0001240024BC4228D1B8F1FF3FF3D0FEF7F8
:101E0C00CFFCA0EB0900404523D8B8F1000F22D03D
:101E1C002B68DA6812F0040FE5D0802EE3D0402E48
:101E2C00E1D01A6812F0080FDDD0002401941A6872
:101E3C0001925B680193019B2846FFF753FF08232F
:101E4C006B6485F84040012000E0002003B0BDE841
:101E5C00F0830320FAE70320F8E760B310B50446DB
:101E6C0090F8413013B3242384F841302268D368AE
:101E7C0023F40053D3602046FFF762FF22681369F6
:101E8C0023F4904313612268536923F02A035361AE
:101E9C002268D36843F40053D3600020606420238D
:101EAC0084F8413084F84230606310BD80F84030D3
:101EBC00FEF702FCD7E7012070472DE9F04182B014
:101ECC001E4690F84130DBB2202B56D104460D460D
:101EDC009046002955D00AB901204FE000234364F5
:101EEC00212380F84130FEF75BFC0746A4F82480E0
:101EFC00A4F82680A368B3F5805F02D04FF00008E9
:101F0C0014E023692BB34FF000080FE0202384F872
:101F1C004130032032E038F8023B2268C3F3080357
:101F2C005360E28C92B2013A92B2E284E38C9BB29F
:101F3C0093B100963B46002280212046FFF74AFFD2
:101F4C000028E3D1002DE6D015F8012B23685A6048
:101F5C00E7E7A8460025E9E700963B46002240212A
:101F6C002046FFF737FF18B9202384F8413005E0ED
:101F7C00202384F84130032000E0022002B0BDE8A9
:101F8C00F0810120FAE70000FEF77AFB0B480C49C0
:101F9C000C4A002302E0D458C4500433C4188C42B9
:101FAC00F9D3094A094C002301E013600432A24220
:101FBC00FBD3FEF73BF9FEF71BFB7047000000203C
:101FCC000C000020442000080C0000205C020020C3
:101FDC00FEE70000024B13B10248FEF74FB9704701
:101FEC000000000095020008F8B500BFF8BC08BC62
:101FFC009E467047F8B500BFF8BC08BC9E467047BB
:10200C0000000000010203040000000000000000BA
:10201C00010203040607080901020000020304057B
:0C202C00060708090A0B0C0D0E0F10101F
:08203800E11F0008750100081A
:042040004D01000846
:0C20440000127A000100000010000000F3
:0400000508001F953B
:00000001FF
